{
  "abi": [
    {
      "inputs": [
        {
          "internalType": "address",
          "name": "SFS_Register_Contract",
          "type": "address"
        },
        {
          "internalType": "address",
          "name": "recipient",
          "type": "address"
        },
        {
          "internalType": "address",
          "name": "_oracle_server",
          "type": "address"
        }
      ],
      "stateMutability": "nonpayable",
      "type": "constructor"
    },
    {
      "inputs": [
        {
          "internalType": "address",
          "name": "",
          "type": "address"
        }
      ],
      "name": "TokenToPrice",
      "outputs": [
        {
          "internalType": "uint256",
          "name": "",
          "type": "uint256"
        }
      ],
      "stateMutability": "view",
      "type": "function"
    },
    {
      "inputs": [
        {
          "internalType": "address",
          "name": "token",
          "type": "address"
        },
        {
          "internalType": "uint256",
          "name": "price",
          "type": "uint256"
        }
      ],
      "name": "updatePrices",
      "outputs": [
        {
          "internalType": "address",
          "name": "",
          "type": "address"
        },
        {
          "internalType": "uint256",
          "name": "",
          "type": "uint256"
        }
      ],
      "stateMutability": "nonpayable",
      "type": "function"
    }
  ],
  "bytecode": {
    "object": "0x60806040526000805460ff1916905534801561001a57600080fd5b506040516103bb3803806103bb8339810160408190526100399161018e565b82826100458282610084565b505060008054610100600160a81b0319166101006001600160a01b039586160217905550600180546001600160a01b03191691909216179055506101ea565b6000805460ff16156100ee5760405162461bcd60e51b815260206004820152602960248201527f416c726561647920726567697374657265642e2043616e6e6f742072656769736044820152683a32b91030b3b0b4b760b91b606482015260840160405180910390fd5b6000805460ff19166001179055604051632210724360e11b81526001600160a01b038381166004830152849190821690634420e486906024016020604051808303816000875af1158015610146573d6000803e3d6000fd5b505050506040513d601f19601f8201168201806040525081019061016a91906101d1565b949350505050565b80516001600160a01b038116811461018957600080fd5b919050565b6000806000606084860312156101a357600080fd5b6101ac84610172565b92506101ba60208501610172565b91506101c860408501610172565b90509250925092565b6000602082840312156101e357600080fd5b5051919050565b6101c2806101f96000396000f3fe608060405234801561001057600080fd5b50600436106100365760003560e01c80630ec771471461003b578063cc3f263d14610072575b600080fd5b61004e610049366004610140565b6100a0565b604080516001600160a01b0390931683526020830191909152015b60405180910390f35b61009261008036600461016a565b60026020526000908152604090205481565b604051908152602001610069565b60015460009081906001600160a01b031633146101035760405162461bcd60e51b815260206004820152601860248201527f4d7573742062652063616c6c6564206279207365727665720000000000000000604482015260640160405180910390fd5b50506001600160a01b03821660009081526002602052604090208190559091565b80356001600160a01b038116811461013b57600080fd5b919050565b6000806040838503121561015357600080fd5b61015c83610124565b946020939093013593505050565b60006020828403121561017c57600080fd5b61018582610124565b939250505056fea2646970667358221220744499b728054211555fc07373ece1a39b2990864f241ac0c595f02363e48bcb64736f6c63430008140033",
    "linkReferences": {}
  },
  "methodIdentifiers": {
    "TokenToPrice(address)": "cc3f263d",
    "updatePrices(address,uint256)": "0ec77147"
  },
  "id": 36
}