{
  "_format": "hh-sol-artifact-1",
  "contractName": "TickLens",
  "sourceName": "contracts/lens/TickLens.sol",
  "abi": [
    {
      "inputs": [
        {
          "internalType": "address",
          "name": "pool",
          "type": "address"
        },
        {
          "internalType": "int24",
          "name": "targetTick",
          "type": "int24"
        }
      ],
      "name": "getClosestActiveTicks",
      "outputs": [
        {
          "components": [
            {
              "internalType": "int24",
              "name": "tick",
              "type": "int24"
            },
            {
              "internalType": "int128",
              "name": "liquidityNet",
              "type": "int128"
            },
            {
              "internalType": "uint128",
              "name": "liquidityGross",
              "type": "uint128"
            }
          ],
          "internalType": "struct ITickLens.PopulatedTick[2]",
          "name": "populatedTicks",
          "type": "tuple[2]"
        }
      ],
      "stateMutability": "view",
      "type": "function"
    },
    {
      "inputs": [
        {
          "internalType": "address",
          "name": "pool",
          "type": "address"
        },
        {
          "internalType": "int24",
          "name": "startingTick",
          "type": "int24"
        },
        {
          "internalType": "uint256",
          "name": "amount",
          "type": "uint256"
        },
        {
          "internalType": "bool",
          "name": "upperDirection",
          "type": "bool"
        }
      ],
      "name": "getNextActiveTicks",
      "outputs": [
        {
          "components": [
            {
              "internalType": "int24",
              "name": "tick",
              "type": "int24"
            },
            {
              "internalType": "int128",
              "name": "liquidityNet",
              "type": "int128"
            },
            {
              "internalType": "uint128",
              "name": "liquidityGross",
              "type": "uint128"
            }
          ],
          "internalType": "struct ITickLens.PopulatedTick[]",
          "name": "populatedTicks",
          "type": "tuple[]"
        }
      ],
      "stateMutability": "view",
      "type": "function"
    },
    {
      "inputs": [
        {
          "internalType": "address",
          "name": "pool",
          "type": "address"
        },
        {
          "internalType": "int16",
          "name": "tickTableIndex",
          "type": "int16"
        }
      ],
      "name": "getPopulatedTicksInWord",
      "outputs": [
        {
          "components": [
            {
              "internalType": "int24",
              "name": "tick",
              "type": "int24"
            },
            {
              "internalType": "int128",
              "name": "liquidityNet",
              "type": "int128"
            },
            {
              "internalType": "uint128",
              "name": "liquidityGross",
              "type": "uint128"
            }
          ],
          "internalType": "struct ITickLens.PopulatedTick[]",
          "name": "populatedTicks",
          "type": "tuple[]"
        }
      ],
      "stateMutability": "view",
      "type": "function"
    }
  ],
  "bytecode": "0x608060405234801561001057600080fd5b50610f74806100206000396000f3fe608060405234801561001057600080fd5b50600436106100415760003560e01c8063351fb47814610046578063c5493f771461006f578063ec92d7fa14610082575b600080fd5b610059610054366004610ba0565b6100a2565b6040516100669190610bdd565b60405180910390f35b61005961007d366004610c63565b61029d565b610095610090366004610cb9565b6104fe565b6040516100669190610ce5565b6040517fc677e3e0000000000000000000000000000000000000000000000000000000008152600182900b600482015260609060009073ffffffffffffffffffffffffffffffffffffffff85169063c677e3e090602401602060405180830381865afa158015610116573d6000803e3d6000fd5b505050506040513d601f19601f8201168201806040525081019061013a9190610d3e565b90506000805b610100811015610164576001811b83161561015c576001909101905b600101610140565b508067ffffffffffffffff81111561017e5761017e610d57565b6040519080825280602002602001820160405280156101e757816020015b60408051606081018252600080825260208083018290529282015282527fffffffffffffffffffffffffffffffffffffffffffffffffffffffffffffffff90920191018161019c5790505b50925060005b610100811015610294576001811b83161561028c57600885901b60020b810160008061021989846108ca565b505091506fffffffffffffffffffffffffffffffff16915060405180606001604052808460020b815260200182600f0b8152602001836fffffffffffffffffffffffffffffffff168152508786600190039650868151811061027d5761027d610d86565b60200260200101819052505050505b6001016101ed565b50505092915050565b6060838367ffffffffffffffff8111156102b9576102b9610d57565b60405190808252806020026020018201604052801561032257816020015b60408051606081018252600080825260208083018290529282015282527fffffffffffffffffffffffffffffffffffffffffffffffffffffffffffffffff9092019101816102d75790505b506040517ff30dba93000000000000000000000000000000000000000000000000000000008152600283900b600482015290925060009081908190819073ffffffffffffffffffffffffffffffffffffffff8b169063f30dba939060240160c060405180830381865afa15801561039d573d6000803e3d6000fd5b505050506040513d601f19601f820116820180604052508101906103c19190610db5565b505093509350935093508060020b8260020b0361043e576040517f08c379a000000000000000000000000000000000000000000000000000000000815260206004820152601460248201527f496e76616c6964207374617274696e675469636b000000000000000000000000604482015260640160405180910390fd5b60005b888110156104f05760405180606001604052808760020b815260200185600f0b8152602001866fffffffffffffffffffffffffffffffff1681525087828151811061048e5761048e610d86565b60200260200101819052506000886104a657836104a8565b825b90508660020b8160020b036104bd57506104f0565b8096506104ca8c886108ca565b6fffffffffffffffffffffffffffffffff90931698509096509450925050600101610441565b505050505050949350505050565b610506610b1a565b60008373ffffffffffffffffffffffffffffffffffffffff1663578b9a366040518163ffffffff1660e01b8152600401602060405180830381865afa158015610553573d6000803e3d6000fd5b505050506040513d601f19601f820116820180604052508101906105779190610e24565b90506000600861058f610d8a600287900b831d610e80565b60020b901d9050600080600161ffff84161b841663ffffffff16156106815760006105c18860088960020b901d610941565b90506105cd8188610981565b90935091508161067f5760006105ec610d8a60028a900b60081d610e80565b6105f7906001610e80565b9050600061060c8a60088460010b901d610ada565b905060008061061e838560010b610981565b91509150801561066c5760006008610638610d8a85610ec7565b60020b901b90506106548d61064f610d8a86610ec7565b610941565b95506106608682610981565b909850965061067a9050565b8761067681610f08565b9850505b505050505b505b8061073557600061069b8563ffffffff168560010b610981565b50905060006106aa8983610ada565b90506000806106c08360088660020b901b610981565b9150915080156107045760006106dc8c61064f610d8a86610ec7565b90506106fa8160086106f0610d8a87610ec7565b60020b901b610981565b5096506107309050565b61072d7ffffffffffffffffffffffffffffffffffffffffffffffffffffffffffff27618610f29565b95505b505050505b8560020b8260020b036108065760008060006107518a8a6108ca565b93505092506fffffffffffffffffffffffffffffffff16925060405180606001604052808a60020b815260200183600f0b8152602001846fffffffffffffffffffffffffffffffff16815250886000600281106107b0576107b0610d86565b60200201526107bf8a826108ca565b50506040805160608101825260029490940b8452600f9190910b6020808501919091526fffffffffffffffffffffffffffffffff9290921690830152880152506108c09050565b60008060006108158a866108ca565b50925092506fffffffffffffffffffffffffffffffff16925060405180606001604052808660020b815260200183600f0b8152602001846fffffffffffffffffffffffffffffffff168152508860016002811061087457610874610d86565b60200201526108838a826108ca565b50506040805160608101825260029490940b8452600f9190910b60208401526fffffffffffffffffffffffffffffffff9190911690820152875250505b5050505092915050565b60008060008060405160605160805160a0517ff30dba93000000000000000000000000000000000000000000000000000000006000528860045260c06000602460008d5afa5060005197506020519650604051955060605194508360405282606052816080528060a0525050505092959194509250565b60007fc677e3e000000000000000000000000000000000000000000000000000000000600052816004526020600060246000865afa505060005192915050565b60008060ff831684811c80830361099f578160ff0385019350610ad1565b7f555555555555555555555555555555555555555555555555555555555555555560008290038216908116156fffffffffffffffffffffffffffffffff82161560071b1777ffffffffffffffff0000000000000000ffffffffffffffff82161560061b177bffffffff00000000ffffffff00000000ffffffff00000000ffffffff82161560051b177dffff0000ffff0000ffff0000ffff0000ffff0000ffff0000ffff0000ffff82161560041b177eff00ff00ff00ff00ff00ff00ff00ff00ff00ff00ff00ff00ff00ff00ff00ff82161560031b177f0f0f0f0f0f0f0f0f0f0f0f0f0f0f0f0f0f0f0f0f0f0f0f0f0f0f0f0f0f0f0f0f82161560021b177f33333333333333333333333333333333333333333333333333333333333333339091161560011b1760ff1685019350600192505b50509250929050565b60007fd861903700000000000000000000000000000000000000000000000000000000600052816004526020600060246000865afa505060005192915050565b60405180604001604052806002905b60408051606081018252600080825260208083018290529282015282527fffffffffffffffffffffffffffffffffffffffffffffffffffffffffffffffff909201910181610b295790505090565b803573ffffffffffffffffffffffffffffffffffffffff81168114610b9b57600080fd5b919050565b60008060408385031215610bb357600080fd5b610bbc83610b77565b915060208301358060010b8114610bd257600080fd5b809150509250929050565b6020808252825182820181905260009190848201906040850190845b81811015610c45578351805160020b8452602080820151600f0b908501526040908101516fffffffffffffffffffffffffffffffff169084015260608301938501939250600101610bf9565b50909695505050505050565b8060020b8114610c6057600080fd5b50565b60008060008060808587031215610c7957600080fd5b610c8285610b77565b93506020850135610c9281610c51565b92506040850135915060608501358015158114610cae57600080fd5b939692955090935050565b60008060408385031215610ccc57600080fd5b610cd583610b77565b91506020830135610bd281610c51565b60c08101818360005b6002811015610294578151805160020b8452602080820151600f0b908501526040908101516fffffffffffffffffffffffffffffffff169084015260608301925060209190910190600101610cee565b600060208284031215610d5057600080fd5b5051919050565b7f4e487b7100000000000000000000000000000000000000000000000000000000600052604160045260246000fd5b7f4e487b7100000000000000000000000000000000000000000000000000000000600052603260045260246000fd5b60008060008060008060c08789031215610dce57600080fd5b86519550602087015180600f0b8114610de657600080fd5b6040880151909550610df781610c51565b6060880151909450610e0881610c51565b809350506080870151915060a087015190509295509295509295565b600060208284031215610e3657600080fd5b815163ffffffff81168114610e4a57600080fd5b9392505050565b7f4e487b7100000000000000000000000000000000000000000000000000000000600052601160045260246000fd5b600281810b9083900b01627fffff81137fffffffffffffffffffffffffffffffffffffffffffffffffffffffffff80000082121715610ec157610ec1610e51565b92915050565b600282810b9082900b037fffffffffffffffffffffffffffffffffffffffffffffffffffffffffff8000008112627fffff82131715610ec157610ec1610e51565b600061ffff808316818103610f1f57610f1f610e51565b6001019392505050565b60008160020b7fffffffffffffffffffffffffffffffffffffffffffffffffffffffffff8000008103610f5e57610f5e610e51565b6000039291505056fea164736f6c6343000814000a",
  "linkReferences": {},
  "deployedLinkReferences": {}
}