{
  "_format": "hh-sol-artifact-1",
  "contractName": "Quoter",
  "sourceName": "contracts/lens/Quoter.sol",
  "abi": [
    {
      "inputs": [
        {
          "internalType": "address",
          "name": "_factory",
          "type": "address"
        },
        {
          "internalType": "address",
          "name": "_WNativeToken",
          "type": "address"
        },
        {
          "internalType": "address",
          "name": "_poolDeployer",
          "type": "address"
        }
      ],
      "stateMutability": "nonpayable",
      "type": "constructor"
    },
    {
      "inputs": [],
      "name": "WNativeToken",
      "outputs": [
        {
          "internalType": "address",
          "name": "",
          "type": "address"
        }
      ],
      "stateMutability": "view",
      "type": "function"
    },
    {
      "inputs": [
        {
          "internalType": "int256",
          "name": "amount0Delta",
          "type": "int256"
        },
        {
          "internalType": "int256",
          "name": "amount1Delta",
          "type": "int256"
        },
        {
          "internalType": "bytes",
          "name": "path",
          "type": "bytes"
        }
      ],
      "name": "algebraSwapCallback",
      "outputs": [],
      "stateMutability": "view",
      "type": "function"
    },
    {
      "inputs": [],
      "name": "factory",
      "outputs": [
        {
          "internalType": "address",
          "name": "",
          "type": "address"
        }
      ],
      "stateMutability": "view",
      "type": "function"
    },
    {
      "inputs": [],
      "name": "poolDeployer",
      "outputs": [
        {
          "internalType": "address",
          "name": "",
          "type": "address"
        }
      ],
      "stateMutability": "view",
      "type": "function"
    },
    {
      "inputs": [
        {
          "internalType": "bytes",
          "name": "path",
          "type": "bytes"
        },
        {
          "internalType": "uint256",
          "name": "amountIn",
          "type": "uint256"
        }
      ],
      "name": "quoteExactInput",
      "outputs": [
        {
          "internalType": "uint256",
          "name": "amountOut",
          "type": "uint256"
        },
        {
          "internalType": "uint16[]",
          "name": "fees",
          "type": "uint16[]"
        }
      ],
      "stateMutability": "nonpayable",
      "type": "function"
    },
    {
      "inputs": [
        {
          "internalType": "address",
          "name": "tokenIn",
          "type": "address"
        },
        {
          "internalType": "address",
          "name": "tokenOut",
          "type": "address"
        },
        {
          "internalType": "uint256",
          "name": "amountIn",
          "type": "uint256"
        },
        {
          "internalType": "uint160",
          "name": "limitSqrtPrice",
          "type": "uint160"
        }
      ],
      "name": "quoteExactInputSingle",
      "outputs": [
        {
          "internalType": "uint256",
          "name": "amountOut",
          "type": "uint256"
        },
        {
          "internalType": "uint16",
          "name": "fee",
          "type": "uint16"
        }
      ],
      "stateMutability": "nonpayable",
      "type": "function"
    },
    {
      "inputs": [
        {
          "internalType": "bytes",
          "name": "path",
          "type": "bytes"
        },
        {
          "internalType": "uint256",
          "name": "amountOut",
          "type": "uint256"
        }
      ],
      "name": "quoteExactOutput",
      "outputs": [
        {
          "internalType": "uint256",
          "name": "amountIn",
          "type": "uint256"
        },
        {
          "internalType": "uint16[]",
          "name": "fees",
          "type": "uint16[]"
        }
      ],
      "stateMutability": "nonpayable",
      "type": "function"
    },
    {
      "inputs": [
        {
          "internalType": "address",
          "name": "tokenIn",
          "type": "address"
        },
        {
          "internalType": "address",
          "name": "tokenOut",
          "type": "address"
        },
        {
          "internalType": "uint256",
          "name": "amountOut",
          "type": "uint256"
        },
        {
          "internalType": "uint160",
          "name": "limitSqrtPrice",
          "type": "uint160"
        }
      ],
      "name": "quoteExactOutputSingle",
      "outputs": [
        {
          "internalType": "uint256",
          "name": "amountIn",
          "type": "uint256"
        },
        {
          "internalType": "uint16",
          "name": "fee",
          "type": "uint16"
        }
      ],
      "stateMutability": "nonpayable",
      "type": "function"
    }
  ],
  "bytecode": "0x60e06040523480156200001157600080fd5b50604051620017603803806200176083398101604081905262000034916200006e565b6001600160a01b03928316608052821660a0521660c052620000b8565b80516001600160a01b03811681146200006957600080fd5b919050565b6000806000606084860312156200008457600080fd5b6200008f8462000051565b92506200009f6020850162000051565b9150620000af6040850162000051565b90509250925092565b60805160a05160c05161166b620000f5600039600061014401526000818160f80152818161024201526109b60152600061017e015261166b6000f3fe608060405234801561001057600080fd5b50600436106100885760003560e01c80638af3ac851161005b5780638af3ac851461013f5780639e73c81d14610166578063c45a015514610179578063cdca1753146101a057600080fd5b80632c8958f61461008d5780632d9ebd1d146100a25780632f80bb1d146100d25780633119049a146100f3575b600080fd5b6100a061009b366004611132565b6101b3565b005b6100b56100b03660046111a7565b610415565b6040805192835261ffff9091166020830152015b60405180910390f35b6100e56100e03660046111fa565b6105d8565b6040516100c992919061123f565b61011a7f000000000000000000000000000000000000000000000000000000000000000081565b60405173ffffffffffffffffffffffffffffffffffffffff90911681526020016100c9565b61011a7f000000000000000000000000000000000000000000000000000000000000000081565b6100b56101743660046111a7565b6106be565b61011a7f000000000000000000000000000000000000000000000000000000000000000081565b6100e56101ae3660046111fa565b6108a3565b60008313806101c25750600082135b61022d576040517f08c379a000000000000000000000000000000000000000000000000000000000815260206004820152601360248201527f5a65726f206c697175696469747920737761700000000000000000000000000060448201526064015b60405180910390fd5b60008061023983610971565b915091506102687f00000000000000000000000000000000000000000000000000000000000000008383610992565b5060008060008088136102b4578473ffffffffffffffffffffffffffffffffffffffff168473ffffffffffffffffffffffffffffffffffffffff161087896102af906112c0565b6102ee565b8373ffffffffffffffffffffffffffffffffffffffff168573ffffffffffffffffffffffffffffffffffffffff161088886102ee906112c0565b925092509250600061030086866109af565b905060008173ffffffffffffffffffffffffffffffffffffffff1663e76c01e46040518163ffffffff1660e01b815260040160c060405180830381865afa15801561034f573d6000803e3d6000fd5b505050506040513d601f19601f82011682018060405250810190610373919061130a565b50505092505050841561039157604051838152816020820152604081fd5b60005415610404576000548314610404576040517f08c379a000000000000000000000000000000000000000000000000000000000815260206004820152601b60248201527f4e6f742072656365697665642066756c6c20616d6f756e744f757400000000006044820152606401610224565b604051848152816020820152604081fd5b60008073ffffffffffffffffffffffffffffffffffffffff8086169087161061043e87876109af565b73ffffffffffffffffffffffffffffffffffffffff1663128acb083083610464896109ed565b73ffffffffffffffffffffffffffffffffffffffff89161561048657886104bf565b856104af576104aa600173fffd8963efd1fc6a506488495d951d5263988d2661139b565b6104bf565b6104bf6401000276a360016113cf565b6040517fffffffffffffffffffffffffffffffffffffffff00000000000000000000000060608f811b821660208401528e901b1660348201526048016040516020818303038152906040526040518663ffffffff1660e01b815260040161052a95949392919061146a565b60408051808303816000875af1925050508015610582575060408051601f3d9081017fffffffffffffffffffffffffffffffffffffffffffffffffffffffffffffffe016820190925261057f918101906114bc565b60015b6105cb573d8080156105b0576040519150601f19603f3d011682016040523d82523d6000602084013e6105b5565b606091505b506105bf81610a01565b90945092506105ce9050565b50505b5094509492505050565b600060606105e584610ae3565b67ffffffffffffffff8111156105fd576105fd611018565b604051908082528060200260200182016040528015610626578160200160208202803683370190505b50905060005b600061063786610afe565b905060008061064588610971565b9150915061065681838960006106be565b868681518110610668576106686114e0565b602002602001018161ffff1661ffff16815250819850505082156106965761068f88610b21565b97506106a2565b869550505050506106b7565b836106ac8161150f565b94505050505061062c565b9250929050565b60008073ffffffffffffffffffffffffffffffffffffffff8086168782161090841682036106ec5760008590555b6106f687876109af565b73ffffffffffffffffffffffffffffffffffffffff1663128acb08308361071c896109ed565b610725906112c0565b73ffffffffffffffffffffffffffffffffffffffff8916156107475788610780565b856107705761076b600173fffd8963efd1fc6a506488495d951d5263988d2661139b565b610780565b6107806401000276a360016113cf565b6040517fffffffffffffffffffffffffffffffffffffffff00000000000000000000000060608e811b821660208401528f901b1660348201526048016040516020818303038152906040526040518663ffffffff1660e01b81526004016107eb95949392919061146a565b60408051808303816000875af1925050508015610843575060408051601f3d9081017fffffffffffffffffffffffffffffffffffffffffffffffffffffffffffffffe0168201909252610840918101906114bc565b60015b6105cb573d808015610871576040519150601f19603f3d011682016040523d82523d6000602084013e610876565b606091505b508473ffffffffffffffffffffffffffffffffffffffff1660000361089a57600080555b6105bf81610a01565b600060606108b084610ae3565b67ffffffffffffffff8111156108c8576108c8611018565b6040519080825280602002602001820160405280156108f1578160200160208202803683370190505b50905060005b600061090286610afe565b905060008061091088610971565b915091506109218282896000610415565b868681518110610933576109336114e0565b602002602001018161ffff1661ffff16815250819850505082156106965761095a88610b21565b9750836109668161150f565b9450505050506108f7565b60008061097e8382610b3d565b915061098b836014610b3d565b9050915091565b60006109a7846109a28585610bc6565b610c41565b949350505050565b60006109e47f00000000000000000000000000000000000000000000000000000000000000006109df8585610bc6565b610cce565b90505b92915050565b8060008112156109fc57600080fd5b919050565b6000808251604014610ac657604483511015610a79576040517f08c379a000000000000000000000000000000000000000000000000000000000815260206004820152601060248201527f556e6578706563746564206572726f72000000000000000000000000000000006044820152606401610224565b60048301925082806020019051810190610a939190611547565b6040517f08c379a000000000000000000000000000000000000000000000000000000000815260040161022491906115be565b82806020019051810190610ada91906115d1565b91509150915091565b60006014808351610af491906115fd565b6109e79190611610565b60006014610b0c818061164b565b610b16919061164b565b825110159050919050565b60606109e76014808451610b3591906115fd565b849190610eac565b60008160140183511015610bad576040517f08c379a000000000000000000000000000000000000000000000000000000000815260206004820152601560248201527f746f416464726573735f6f75744f66426f756e647300000000000000000000006044820152606401610224565b5001602001516c01000000000000000000000000900490565b60408051808201909152600080825260208201528173ffffffffffffffffffffffffffffffffffffffff168373ffffffffffffffffffffffffffffffffffffffff161115610c12579091905b506040805180820190915273ffffffffffffffffffffffffffffffffffffffff92831681529116602082015290565b6000610c4d8383610cce565b90503373ffffffffffffffffffffffffffffffffffffffff8216146109e7576040517f08c379a000000000000000000000000000000000000000000000000000000000815260206004820152601a60248201527f496e76616c69642063616c6c6572206f662063616c6c6261636b0000000000006044820152606401610224565b6000816020015173ffffffffffffffffffffffffffffffffffffffff16826000015173ffffffffffffffffffffffffffffffffffffffff1610610d6d576040517f08c379a000000000000000000000000000000000000000000000000000000000815260206004820152601760248201527f496e76616c6964206f72646572206f6620746f6b656e730000000000000000006044820152606401610224565b8282600001518360200151604051602001610dab92919073ffffffffffffffffffffffffffffffffffffffff92831681529116602082015260400190565b604080517fffffffffffffffffffffffffffffffffffffffffffffffffffffffffffffffe0818403018152908290528051602091820120610e6f939290917f177d5fbf994f4d130c008797563306f1a168dc689f81b2fa23b4396931014d9191017fff00000000000000000000000000000000000000000000000000000000000000815260609390931b7fffffffffffffffffffffffffffffffffffffffff0000000000000000000000001660018401526015830191909152603582015260550190565b604080517fffffffffffffffffffffffffffffffffffffffffffffffffffffffffffffffe081840301815291905280516020909101209392505050565b60608182601f011015610f1b576040517f08c379a000000000000000000000000000000000000000000000000000000000815260206004820152600e60248201527f736c6963655f6f766572666c6f770000000000000000000000000000000000006044820152606401610224565b81830184511015610f88576040517f08c379a000000000000000000000000000000000000000000000000000000000815260206004820152601160248201527f736c6963655f6f75744f66426f756e64730000000000000000000000000000006044820152606401610224565b606082158015610fa7576040519150600082526020820160405261100f565b6040519150601f8416801560200281840101858101878315602002848b0101015b81831015610fe0578051835260209283019201610fc8565b5050858452601f017fffffffffffffffffffffffffffffffffffffffffffffffffffffffffffffffe016604052505b50949350505050565b7f4e487b7100000000000000000000000000000000000000000000000000000000600052604160045260246000fd5b604051601f82017fffffffffffffffffffffffffffffffffffffffffffffffffffffffffffffffe016810167ffffffffffffffff8111828210171561108e5761108e611018565b604052919050565b600067ffffffffffffffff8211156110b0576110b0611018565b50601f017fffffffffffffffffffffffffffffffffffffffffffffffffffffffffffffffe01660200190565b600082601f8301126110ed57600080fd5b81356111006110fb82611096565b611047565b81815284602083860101111561111557600080fd5b816020850160208301376000918101602001919091529392505050565b60008060006060848603121561114757600080fd5b8335925060208401359150604084013567ffffffffffffffff81111561116c57600080fd5b611178868287016110dc565b9150509250925092565b73ffffffffffffffffffffffffffffffffffffffff811681146111a457600080fd5b50565b600080600080608085870312156111bd57600080fd5b84356111c881611182565b935060208501356111d881611182565b92506040850135915060608501356111ef81611182565b939692955090935050565b6000806040838503121561120d57600080fd5b823567ffffffffffffffff81111561122457600080fd5b611230858286016110dc565b95602094909401359450505050565b6000604082018483526020604081850152818551808452606086019150828701935060005b8181101561128457845161ffff1683529383019391830191600101611264565b5090979650505050505050565b7f4e487b7100000000000000000000000000000000000000000000000000000000600052601160045260246000fd5b60007f800000000000000000000000000000000000000000000000000000000000000082036112f1576112f1611291565b5060000390565b805161ffff811681146109fc57600080fd5b60008060008060008060c0878903121561132357600080fd5b865161132e81611182565b8096505060208701518060020b811461134657600080fd5b9450611354604088016112f8565b9350606087015160ff8116811461136a57600080fd5b9250611378608088016112f8565b915060a0870151801515811461138d57600080fd5b809150509295509295509295565b73ffffffffffffffffffffffffffffffffffffffff8281168282160390808211156113c8576113c8611291565b5092915050565b73ffffffffffffffffffffffffffffffffffffffff8181168382160190808211156113c8576113c8611291565b60005b838110156114175781810151838201526020016113ff565b50506000910152565b600081518084526114388160208601602086016113fc565b601f017fffffffffffffffffffffffffffffffffffffffffffffffffffffffffffffffe0169290920160200192915050565b600073ffffffffffffffffffffffffffffffffffffffff8088168352861515602084015285604084015280851660608401525060a060808301526114b160a0830184611420565b979650505050505050565b600080604083850312156114cf57600080fd5b505080516020909101519092909150565b7f4e487b7100000000000000000000000000000000000000000000000000000000600052603260045260246000fd5b60007fffffffffffffffffffffffffffffffffffffffffffffffffffffffffffffffff820361154057611540611291565b5060010190565b60006020828403121561155957600080fd5b815167ffffffffffffffff81111561157057600080fd5b8201601f8101841361158157600080fd5b805161158f6110fb82611096565b8181528560208385010111156115a457600080fd5b6115b58260208301602086016113fc565b95945050505050565b6020815260006109e46020830184611420565b600080604083850312156115e457600080fd5b825191506115f4602084016112f8565b90509250929050565b818103818111156109e7576109e7611291565b600082611646577f4e487b7100000000000000000000000000000000000000000000000000000000600052601260045260246000fd5b500490565b808201808211156109e7576109e761129156fea164736f6c6343000814000a",
  "linkReferences": {},
  "deployedLinkReferences": {}
}