{
  "_format": "hh-sol-artifact-1",
  "contractName": "NonfungibleTokenPositionDescriptor",
  "sourceName": "contracts/NonfungibleTokenPositionDescriptor.sol",
  "abi": [
    {
      "inputs": [
        {
          "internalType": "address",
          "name": "_WNativeToken",
          "type": "address"
        },
        {
          "internalType": "string",
          "name": "_nativeCurrencySymbol_",
          "type": "string"
        },
        {
          "components": [
            {
              "internalType": "address",
              "name": "tokenAddress",
              "type": "address"
            },
            {
              "internalType": "int256",
              "name": "tokenRatioSortOrder",
              "type": "int256"
            }
          ],
          "internalType": "struct NonfungibleTokenPositionDescriptor.TokenRatioSortData[]",
          "name": "tokenDatas",
          "type": "tuple[]"
        }
      ],
      "stateMutability": "nonpayable",
      "type": "constructor"
    },
    {
      "inputs": [],
      "name": "WNativeToken",
      "outputs": [
        {
          "internalType": "address",
          "name": "",
          "type": "address"
        }
      ],
      "stateMutability": "view",
      "type": "function"
    },
    {
      "inputs": [],
      "name": "cachedThis",
      "outputs": [
        {
          "internalType": "address",
          "name": "",
          "type": "address"
        }
      ],
      "stateMutability": "view",
      "type": "function"
    },
    {
      "inputs": [
        {
          "internalType": "address",
          "name": "token0",
          "type": "address"
        },
        {
          "internalType": "address",
          "name": "token1",
          "type": "address"
        }
      ],
      "name": "flipRatio",
      "outputs": [
        {
          "internalType": "bool",
          "name": "",
          "type": "bool"
        }
      ],
      "stateMutability": "view",
      "type": "function"
    },
    {
      "inputs": [],
      "name": "nativeCurrencySymbol",
      "outputs": [
        {
          "internalType": "string",
          "name": "",
          "type": "string"
        }
      ],
      "stateMutability": "view",
      "type": "function"
    },
    {
      "inputs": [
        {
          "internalType": "address",
          "name": "token",
          "type": "address"
        }
      ],
      "name": "tokenRatioPriority",
      "outputs": [
        {
          "internalType": "int256",
          "name": "",
          "type": "int256"
        }
      ],
      "stateMutability": "view",
      "type": "function"
    },
    {
      "inputs": [
        {
          "internalType": "contract INonfungiblePositionManager",
          "name": "positionManager",
          "type": "address"
        },
        {
          "internalType": "uint256",
          "name": "tokenId",
          "type": "uint256"
        }
      ],
      "name": "tokenURI",
      "outputs": [
        {
          "internalType": "string",
          "name": "",
          "type": "string"
        }
      ],
      "stateMutability": "view",
      "type": "function"
    }
  ],
  "bytecode": "0x604060c08152346200035e5762001404803803806200001e8162000378565b92833981016060828203126200035e5762000039826200039e565b6020838101519192916001600160401b03908181116200035e578501601f8481830112156200035e578151968388116200030257601f1997620000828382018a16870162000378565b93818552878783830101116200035e57869060005b838110620003635750506000918501015288810151908482116200035e5701948082870112156200035e5785518481116200030257620000dc868260051b0162000378565b96868089848152019260061b820101928084116200035e5791908701915b838310620003185750505050856080523060a05281519283116200030257600054916001978884811c94168015620002f7575b86851014620002e157838386951162000287575b508592841160011462000221575060009262000215575b5050600019600383901b1c191690851b176000555b6001600160a01b039283166000908152848252859020606319905581519283620001cf575b85516110259081620003df8239608051818181610290015281816102d6015261096a015260a05181818161092601528181610a7c0152610bb30152f35b60005b848110620001e1575062000192565b8083620001f0889387620003b3565b51015183620002008388620003b3565b515116600052828552886000205501620001d2565b01519050388062000158565b8894929192169160008052856000209260005b8782821062000270575050841162000256575b505050811b016000556200016d565b015160001960f88460031b161c1916905538808062000247565b8385015186558b9790950194938401930162000234565b909192935060008052856000208480870160051c820192888810620002d7575b9187968c92969594930160051c01915b828110620002c757505062000141565b600081558796508b9101620002b7565b92508192620002a7565b634e487b7160e01b600052602260045260246000fd5b93607f16936200012d565b634e487b7160e01b600052604160045260246000fd5b8b838203126200035e578b518c81018181108982111762000302578d9384928b92845262000346876200039e565b815282870151838201528152019301929150620000fa565b600080fd5b81810183015187820184015288920162000097565b6040519190601f01601f191682016001600160401b038111838210176200030257604052565b51906001600160a01b03821682036200035e57565b8051821015620003c85760209160051b010190565b634e487b7160e01b600052603260045260246000fdfe6080604052600436101561001257600080fd5b60003560e01c80637d4a86891461098e5780638af3ac851461094a5780638ba7888d14610906578063dee91a2c146108bd578063e1e06b9f1461088d5763e9dc63751461005e57600080fd5b34610603576040366003190112610603576004356001600160a01b038116809103610603576040517f99fbab88000000000000000000000000000000000000000000000000000000008152602435600482015261016081602481855afa9081156105ad57600080936000926000946107cf575b506020600491604051928380927f3119049a0000000000000000000000000000000000000000000000000000000082525afa9081156105ad57600091610795575b50604051906040820182811067ffffffffffffffff8211176105b9576040526001600160a01b0383169182815260208101926001600160a01b038816908185521015610737576001600160a01b0380915116925116916040519260208401918252604084015260408352606083019280841067ffffffffffffffff8511176105b95760e091846040528151902060808201936001600160f81b031985526bffffffffffffffffffffffff199060601b16608183015260958201527f177d5fbf994f4d130c008797563306f1a168dc689f81b2fa23b4396931014d9160b582015260558452019180831067ffffffffffffffff8411176105b9576001600160a01b0392604052519020169261022582610a71565b61022e86610a71565b1291821595866000146107305780965b156107285750925b604051927fe76c01e400000000000000000000000000000000000000000000000000000000845260c084600481895afa9384156105ad576000946106a5575b506001600160a01b037f0000000000000000000000000000000000000000000000000000000000000000166001600160a01b03881614600014610696576102ca610bb1565b965b6001600160a01b037f0000000000000000000000000000000000000000000000000000000000000000166001600160a01b0387161460001461068857610310610bb1565b6040519663313ce56760e01b88526020886004816001600160a01b0387165afa9788156105ad5760009861064c575b506040519763313ce56760e01b89526020896004816001600160a01b0386165afa9283156105ad57600093610610575b6040517fd0c93a7c000000000000000000000000000000000000000000000000000000008152995060208a6004818e5afa998a156105ad5760009a6105cf575b506040519b8c67ffffffffffffffff6101a08281810110920111176105b9578c60406001600160a01b0360ff9896818a986101a08601855260243586521660208501521691015260608d015260808c01521660a08a01521660c088015260e087015260020b61010086015260020b61012085015260020b61014084015260020b61016083015261018082015260006040518080937fc49917d700000000000000000000000000000000000000000000000000000000825260206004830152805160248301526001600160a01b0360208201511660448301526001600160a01b0360408201511660648301526001600160a01b036101806104d96104c360608501516101a060848801526101c48701906109f2565b60808501518682036023190160a48801526109f2565b9260ff60a08201511660c486015260ff60c08201511660e486015260e0810151151561010486015261010081015160020b61012486015261012081015160020b61014486015261014081015160020b61016486015261016081015160020b6101848601520151166101a4830152038173__$cea9be979eee3d87fb124d6cbb244bb0b5$__5af480156105ad576105869160009161058a575b506040519182916020835260208301906109f2565b0390f35b6105a791503d806000833e61059f8183610a4f565b810190610b4f565b38610571565b6040513d6000823e3d90fd5b634e487b7160e01b600052604160045260246000fd5b9099506020813d602011610608575b816105eb60209383610a4f565b81010312610603576105fc90610d31565b98386103af565b600080fd5b3d91506105de565b92506020893d602011610644575b8161062b60209383610a4f565b810103126106035761063e600499610d6b565b9261036f565b3d915061061e565b9097506020813d602011610680575b8161066860209383610a4f565b810103126106035761067990610d6b565b963861033f565b3d915061065b565b61069186610d79565b610310565b61069f87610d79565b966102cc565b90935060c0813d8211610720575b816106c060c09383610a4f565b810103126106035780516001600160a01b038116036106035760a06106e760208301610d31565b916106f460408201610d5c565b5061070160608201610d6b565b5061070e60808201610d5c565b50015180151503610603579238610285565b3d91506106b3565b905092610246565b819661023e565b60646040517f08c379a000000000000000000000000000000000000000000000000000000000815260206004820152601760248201527f496e76616c6964206f72646572206f6620746f6b656e730000000000000000006044820152fd5b90506020813d6020116107c7575b816107b060209383610a4f565b81010312610603576107c190610d1d565b38610112565b3d91506107a3565b945092505050610160823d61016011610885575b816107f16101609383610a4f565b810103126106035781516affffffffffffffffffffff8116036106035761081a60208301610d1d565b5061082760408301610d1d565b9161083460608201610d1d565b6004602061084460808501610d31565b9561087961014061085760a08801610d31565b9661086460c08201610d3f565b506108726101208201610d3f565b5001610d3f565b509295939491506100d1565b3d91506107e3565b34610603576000366003190112610603576105866108a9610bb1565b6040519182916020835260208301906109f2565b34610603576040366003190112610603576108d66109b9565b6024356001600160a01b0381168103610603576108fd6108f7602093610a71565b91610a71565b12604051908152f35b346106035760003660031901126106035760206040516001600160a01b037f0000000000000000000000000000000000000000000000000000000000000000168152f35b346106035760003660031901126106035760206040516001600160a01b037f0000000000000000000000000000000000000000000000000000000000000000168152f35b346106035760203660031901126106035760206109b16109ac6109b9565b610a71565b604051908152f35b600435906001600160a01b038216820361060357565b60005b8381106109e25750506000910152565b81810151838201526020016109d2565b90602091610a0b815180928185528580860191016109cf565b601f01601f1916010190565b6040810190811067ffffffffffffffff8211176105b957604052565b6020810190811067ffffffffffffffff8211176105b957604052565b90601f8019910116810190811067ffffffffffffffff8211176105b957604052565b6001600160a01b03907f00000000000000000000000000000000000000000000000000000000000000008216308103610ab7575016600052600160205260406000205490565b91602460209260405194859384927f7d4a86890000000000000000000000000000000000000000000000000000000084521660048301525afa9081156105ad57600091610b02575090565b906020823d8211610b2b575b81610b1b60209383610a4f565b81010312610b2857505190565b80fd5b3d9150610b0e565b67ffffffffffffffff81116105b957601f01601f191660200190565b6020818303126106035780519067ffffffffffffffff8211610603570181601f82011215610603578051610b8281610b33565b92610b906040519485610a4f565b8184526020828401011161060357610bae91602080850191016109cf565b90565b7f00000000000000000000000000000000000000000000000000000000000000006001600160a01b0316308103610cc757506040516000805490600182811c90808416938415610cbd575b6020948584108114610ca95783875286949392918115610c895750600114610c2d575b5050610bae92500382610a4f565b60008080527f290decd9548b62a8d60345a988386fc84ba6bc95484008f6362f93160ef3e56395935091905b818310610c71575050610bae93508201013880610c1f565b85548784018501529485019486945091830191610c59565b915050610bae94925060ff191682840152151560051b8201013880610c1f565b602485634e487b7160e01b81526022600452fd5b91607f1691610bfc565b6000600491604051928380927fe1e06b9f0000000000000000000000000000000000000000000000000000000082525afa9081156105ad57600091610d0a575090565b610bae913d8091833e61059f8183610a4f565b51906001600160a01b038216820361060357565b51908160020b820361060357565b51906fffffffffffffffffffffffffffffffff8216820361060357565b519061ffff8216820361060357565b519060ff8216820361060357565b610d8281610e6e565b90815115610d8e575090565b9190506001600160a01b0360405192610da684610a17565b600684526020368186013716600090815b600380821015610e1757908260019282601303901b1c610e10610ddf600f8360041c16610e44565b91610e06859185831b94891a610df5868d610e1d565b5360f0811660ff9182160316610e44565b871a920188610e1d565b5301610db7565b50505050565b908151811015610e2e570160200190565b634e487b7160e01b600052603260045260246000fd5b6001600160f81b031990600a60ff82161015610e645760300160f81b1690565b60370160f81b1690565b604090815190602091828101907f95d89b4100000000000000000000000000000000000000000000000000000000825260048152610eab81610a17565b6000928392839251915afa3d15611010573d90610ec782610b33565b91610ed486519384610a4f565b82523d838584013e5b158015611007575b610ff8578051838103610fc857508281805181010312610fc45782015191835190610f0f82610a17565b8082528036818401378293835b828110610f8b575050610f3a610f3185610b33565b95519586610a4f565b838552601f19610f4985610b33565b01903690860137815b838110610f60575050505090565b806001600160f81b0319610f7660019385610e1d565b5116841a610f848288610e1d565b5301610f52565b81811a6001600160f81b03198160f81b16610faa575b50600101610f1c565b866001929791610fbb849388610e1d565b53019590610fa1565b5080fd5b8481959492939511610fe7575050505190610fe282610a33565b815290565b610bae945082018101925001610b4f565b509190505190610fe282610a33565b50805115610ee5565b606090610edd56fea164736f6c6343000814000a",
  "linkReferences": {
    "contracts/libraries/NFTDescriptor.sol": {
      "NFTDescriptor": [
        {
          "length": 20,
          "start": 2345
        }
      ]
    }
  },
  "deployedLinkReferences": {
    "contracts/libraries/NFTDescriptor.sol": {
      "NFTDescriptor": [
        {
          "length": 20,
          "start": 1354
        }
      ]
    }
  }
}