{
  "_format": "hh-sol-artifact-1",
  "contractName": "SwapRouter",
  "sourceName": "contracts/SwapRouter.sol",
  "abi": [
    {
      "inputs": [
        {
          "internalType": "address",
          "name": "_factory",
          "type": "address"
        },
        {
          "internalType": "address",
          "name": "_WNativeToken",
          "type": "address"
        },
        {
          "internalType": "address",
          "name": "_poolDeployer",
          "type": "address"
        }
      ],
      "stateMutability": "nonpayable",
      "type": "constructor"
    },
    {
      "inputs": [],
      "name": "WNativeToken",
      "outputs": [
        {
          "internalType": "address",
          "name": "",
          "type": "address"
        }
      ],
      "stateMutability": "view",
      "type": "function"
    },
    {
      "inputs": [
        {
          "internalType": "int256",
          "name": "amount0Delta",
          "type": "int256"
        },
        {
          "internalType": "int256",
          "name": "amount1Delta",
          "type": "int256"
        },
        {
          "internalType": "bytes",
          "name": "_data",
          "type": "bytes"
        }
      ],
      "name": "algebraSwapCallback",
      "outputs": [],
      "stateMutability": "nonpayable",
      "type": "function"
    },
    {
      "inputs": [
        {
          "components": [
            {
              "internalType": "bytes",
              "name": "path",
              "type": "bytes"
            },
            {
              "internalType": "address",
              "name": "recipient",
              "type": "address"
            },
            {
              "internalType": "uint256",
              "name": "deadline",
              "type": "uint256"
            },
            {
              "internalType": "uint256",
              "name": "amountIn",
              "type": "uint256"
            },
            {
              "internalType": "uint256",
              "name": "amountOutMinimum",
              "type": "uint256"
            }
          ],
          "internalType": "struct ISwapRouter.ExactInputParams",
          "name": "params",
          "type": "tuple"
        }
      ],
      "name": "exactInput",
      "outputs": [
        {
          "internalType": "uint256",
          "name": "amountOut",
          "type": "uint256"
        }
      ],
      "stateMutability": "payable",
      "type": "function"
    },
    {
      "inputs": [
        {
          "components": [
            {
              "internalType": "address",
              "name": "tokenIn",
              "type": "address"
            },
            {
              "internalType": "address",
              "name": "tokenOut",
              "type": "address"
            },
            {
              "internalType": "address",
              "name": "recipient",
              "type": "address"
            },
            {
              "internalType": "uint256",
              "name": "deadline",
              "type": "uint256"
            },
            {
              "internalType": "uint256",
              "name": "amountIn",
              "type": "uint256"
            },
            {
              "internalType": "uint256",
              "name": "amountOutMinimum",
              "type": "uint256"
            },
            {
              "internalType": "uint160",
              "name": "limitSqrtPrice",
              "type": "uint160"
            }
          ],
          "internalType": "struct ISwapRouter.ExactInputSingleParams",
          "name": "params",
          "type": "tuple"
        }
      ],
      "name": "exactInputSingle",
      "outputs": [
        {
          "internalType": "uint256",
          "name": "amountOut",
          "type": "uint256"
        }
      ],
      "stateMutability": "payable",
      "type": "function"
    },
    {
      "inputs": [
        {
          "components": [
            {
              "internalType": "address",
              "name": "tokenIn",
              "type": "address"
            },
            {
              "internalType": "address",
              "name": "tokenOut",
              "type": "address"
            },
            {
              "internalType": "address",
              "name": "recipient",
              "type": "address"
            },
            {
              "internalType": "uint256",
              "name": "deadline",
              "type": "uint256"
            },
            {
              "internalType": "uint256",
              "name": "amountIn",
              "type": "uint256"
            },
            {
              "internalType": "uint256",
              "name": "amountOutMinimum",
              "type": "uint256"
            },
            {
              "internalType": "uint160",
              "name": "limitSqrtPrice",
              "type": "uint160"
            }
          ],
          "internalType": "struct ISwapRouter.ExactInputSingleParams",
          "name": "params",
          "type": "tuple"
        }
      ],
      "name": "exactInputSingleSupportingFeeOnTransferTokens",
      "outputs": [
        {
          "internalType": "uint256",
          "name": "amountOut",
          "type": "uint256"
        }
      ],
      "stateMutability": "payable",
      "type": "function"
    },
    {
      "inputs": [
        {
          "components": [
            {
              "internalType": "bytes",
              "name": "path",
              "type": "bytes"
            },
            {
              "internalType": "address",
              "name": "recipient",
              "type": "address"
            },
            {
              "internalType": "uint256",
              "name": "deadline",
              "type": "uint256"
            },
            {
              "internalType": "uint256",
              "name": "amountOut",
              "type": "uint256"
            },
            {
              "internalType": "uint256",
              "name": "amountInMaximum",
              "type": "uint256"
            }
          ],
          "internalType": "struct ISwapRouter.ExactOutputParams",
          "name": "params",
          "type": "tuple"
        }
      ],
      "name": "exactOutput",
      "outputs": [
        {
          "internalType": "uint256",
          "name": "amountIn",
          "type": "uint256"
        }
      ],
      "stateMutability": "payable",
      "type": "function"
    },
    {
      "inputs": [
        {
          "components": [
            {
              "internalType": "address",
              "name": "tokenIn",
              "type": "address"
            },
            {
              "internalType": "address",
              "name": "tokenOut",
              "type": "address"
            },
            {
              "internalType": "address",
              "name": "recipient",
              "type": "address"
            },
            {
              "internalType": "uint256",
              "name": "deadline",
              "type": "uint256"
            },
            {
              "internalType": "uint256",
              "name": "amountOut",
              "type": "uint256"
            },
            {
              "internalType": "uint256",
              "name": "amountInMaximum",
              "type": "uint256"
            },
            {
              "internalType": "uint160",
              "name": "limitSqrtPrice",
              "type": "uint160"
            }
          ],
          "internalType": "struct ISwapRouter.ExactOutputSingleParams",
          "name": "params",
          "type": "tuple"
        }
      ],
      "name": "exactOutputSingle",
      "outputs": [
        {
          "internalType": "uint256",
          "name": "amountIn",
          "type": "uint256"
        }
      ],
      "stateMutability": "payable",
      "type": "function"
    },
    {
      "inputs": [],
      "name": "factory",
      "outputs": [
        {
          "internalType": "address",
          "name": "",
          "type": "address"
        }
      ],
      "stateMutability": "view",
      "type": "function"
    },
    {
      "inputs": [
        {
          "internalType": "bytes[]",
          "name": "data",
          "type": "bytes[]"
        }
      ],
      "name": "multicall",
      "outputs": [
        {
          "internalType": "bytes[]",
          "name": "results",
          "type": "bytes[]"
        }
      ],
      "stateMutability": "payable",
      "type": "function"
    },
    {
      "inputs": [],
      "name": "poolDeployer",
      "outputs": [
        {
          "internalType": "address",
          "name": "",
          "type": "address"
        }
      ],
      "stateMutability": "view",
      "type": "function"
    },
    {
      "inputs": [],
      "name": "refundNativeToken",
      "outputs": [],
      "stateMutability": "payable",
      "type": "function"
    },
    {
      "inputs": [
        {
          "internalType": "address",
          "name": "token",
          "type": "address"
        },
        {
          "internalType": "uint256",
          "name": "value",
          "type": "uint256"
        },
        {
          "internalType": "uint256",
          "name": "deadline",
          "type": "uint256"
        },
        {
          "internalType": "uint8",
          "name": "v",
          "type": "uint8"
        },
        {
          "internalType": "bytes32",
          "name": "r",
          "type": "bytes32"
        },
        {
          "internalType": "bytes32",
          "name": "s",
          "type": "bytes32"
        }
      ],
      "name": "selfPermit",
      "outputs": [],
      "stateMutability": "payable",
      "type": "function"
    },
    {
      "inputs": [
        {
          "internalType": "address",
          "name": "token",
          "type": "address"
        },
        {
          "internalType": "uint256",
          "name": "nonce",
          "type": "uint256"
        },
        {
          "internalType": "uint256",
          "name": "expiry",
          "type": "uint256"
        },
        {
          "internalType": "uint8",
          "name": "v",
          "type": "uint8"
        },
        {
          "internalType": "bytes32",
          "name": "r",
          "type": "bytes32"
        },
        {
          "internalType": "bytes32",
          "name": "s",
          "type": "bytes32"
        }
      ],
      "name": "selfPermitAllowed",
      "outputs": [],
      "stateMutability": "payable",
      "type": "function"
    },
    {
      "inputs": [
        {
          "internalType": "address",
          "name": "token",
          "type": "address"
        },
        {
          "internalType": "uint256",
          "name": "nonce",
          "type": "uint256"
        },
        {
          "internalType": "uint256",
          "name": "expiry",
          "type": "uint256"
        },
        {
          "internalType": "uint8",
          "name": "v",
          "type": "uint8"
        },
        {
          "internalType": "bytes32",
          "name": "r",
          "type": "bytes32"
        },
        {
          "internalType": "bytes32",
          "name": "s",
          "type": "bytes32"
        }
      ],
      "name": "selfPermitAllowedIfNecessary",
      "outputs": [],
      "stateMutability": "payable",
      "type": "function"
    },
    {
      "inputs": [
        {
          "internalType": "address",
          "name": "token",
          "type": "address"
        },
        {
          "internalType": "uint256",
          "name": "value",
          "type": "uint256"
        },
        {
          "internalType": "uint256",
          "name": "deadline",
          "type": "uint256"
        },
        {
          "internalType": "uint8",
          "name": "v",
          "type": "uint8"
        },
        {
          "internalType": "bytes32",
          "name": "r",
          "type": "bytes32"
        },
        {
          "internalType": "bytes32",
          "name": "s",
          "type": "bytes32"
        }
      ],
      "name": "selfPermitIfNecessary",
      "outputs": [],
      "stateMutability": "payable",
      "type": "function"
    },
    {
      "inputs": [
        {
          "internalType": "address",
          "name": "token",
          "type": "address"
        },
        {
          "internalType": "uint256",
          "name": "amountMinimum",
          "type": "uint256"
        },
        {
          "internalType": "address",
          "name": "recipient",
          "type": "address"
        }
      ],
      "name": "sweepToken",
      "outputs": [],
      "stateMutability": "payable",
      "type": "function"
    },
    {
      "inputs": [
        {
          "internalType": "address",
          "name": "token",
          "type": "address"
        },
        {
          "internalType": "uint256",
          "name": "amountMinimum",
          "type": "uint256"
        },
        {
          "internalType": "address",
          "name": "recipient",
          "type": "address"
        },
        {
          "internalType": "uint256",
          "name": "feeBips",
          "type": "uint256"
        },
        {
          "internalType": "address",
          "name": "feeRecipient",
          "type": "address"
        }
      ],
      "name": "sweepTokenWithFee",
      "outputs": [],
      "stateMutability": "payable",
      "type": "function"
    },
    {
      "inputs": [
        {
          "internalType": "uint256",
          "name": "amountMinimum",
          "type": "uint256"
        },
        {
          "internalType": "address",
          "name": "recipient",
          "type": "address"
        }
      ],
      "name": "unwrapWNativeToken",
      "outputs": [],
      "stateMutability": "payable",
      "type": "function"
    },
    {
      "inputs": [
        {
          "internalType": "uint256",
          "name": "amountMinimum",
          "type": "uint256"
        },
        {
          "internalType": "address",
          "name": "recipient",
          "type": "address"
        },
        {
          "internalType": "uint256",
          "name": "feeBips",
          "type": "uint256"
        },
        {
          "internalType": "address",
          "name": "feeRecipient",
          "type": "address"
        }
      ],
      "name": "unwrapWNativeTokenWithFee",
      "outputs": [],
      "stateMutability": "payable",
      "type": "function"
    },
    {
      "stateMutability": "payable",
      "type": "receive"
    },
    {
      "inputs": [],
      "name": "alreadyInitialized",
      "type": "error"
    },
    {
      "inputs": [],
      "name": "arithmeticError",
      "type": "error"
    },
    {
      "inputs": [],
      "name": "bottomTickLowerThanMIN",
      "type": "error"
    },
    {
      "inputs": [],
      "name": "dynamicFeeActive",
      "type": "error"
    },
    {
      "inputs": [],
      "name": "dynamicFeeDisabled",
      "type": "error"
    },
    {
      "inputs": [],
      "name": "flashInsufficientPaid0",
      "type": "error"
    },
    {
      "inputs": [],
      "name": "flashInsufficientPaid1",
      "type": "error"
    },
    {
      "inputs": [],
      "name": "insufficientInputAmount",
      "type": "error"
    },
    {
      "inputs": [],
      "name": "invalidAmountRequired",
      "type": "error"
    },
    {
      "inputs": [
        {
          "internalType": "bytes4",
          "name": "selector",
          "type": "bytes4"
        }
      ],
      "name": "invalidHookResponse",
      "type": "error"
    },
    {
      "inputs": [],
      "name": "invalidLimitSqrtPrice",
      "type": "error"
    },
    {
      "inputs": [],
      "name": "invalidNewCommunityFee",
      "type": "error"
    },
    {
      "inputs": [],
      "name": "invalidNewTickSpacing",
      "type": "error"
    },
    {
      "inputs": [],
      "name": "liquidityAdd",
      "type": "error"
    },
    {
      "inputs": [],
      "name": "liquidityOverflow",
      "type": "error"
    },
    {
      "inputs": [],
      "name": "liquiditySub",
      "type": "error"
    },
    {
      "inputs": [],
      "name": "locked",
      "type": "error"
    },
    {
      "inputs": [],
      "name": "notAllowed",
      "type": "error"
    },
    {
      "inputs": [],
      "name": "notInitialized",
      "type": "error"
    },
    {
      "inputs": [],
      "name": "onlyFarming",
      "type": "error"
    },
    {
      "inputs": [],
      "name": "pluginIsNotConnected",
      "type": "error"
    },
    {
      "inputs": [],
      "name": "priceOutOfRange",
      "type": "error"
    },
    {
      "inputs": [],
      "name": "tickInvalidLinks",
      "type": "error"
    },
    {
      "inputs": [],
      "name": "tickIsNotInitialized",
      "type": "error"
    },
    {
      "inputs": [],
      "name": "tickIsNotSpaced",
      "type": "error"
    },
    {
      "inputs": [],
      "name": "tickOutOfRange",
      "type": "error"
    },
    {
      "inputs": [],
      "name": "topTickAboveMAX",
      "type": "error"
    },
    {
      "inputs": [],
      "name": "topTickLowerOrEqBottomTick",
      "type": "error"
    },
    {
      "inputs": [],
      "name": "transferFailed",
      "type": "error"
    },
    {
      "inputs": [],
      "name": "zeroAmountRequired",
      "type": "error"
    },
    {
      "inputs": [],
      "name": "zeroLiquidityActual",
      "type": "error"
    },
    {
      "inputs": [],
      "name": "zeroLiquidityDesired",
      "type": "error"
    }
  ],
  "bytecode": "0x60e06040526000196000553480156200001757600080fd5b5060405162003285380380620032858339810160408190526200003a9162000074565b6001600160a01b03928316608052821660a0521660c052620000be565b80516001600160a01b03811681146200006f57600080fd5b919050565b6000806000606084860312156200008a57600080fd5b620000958462000057565b9250620000a56020850162000057565b9150620000b56040850162000057565b90509250925092565b60805160a05160c0516131516200013460003960008181610165015281816102d7015281816107f6015281816108bb015281816110ff0152818161122001528181611680015281816116e001526117a801526000818161022a015281816104a90152611d0b0152600061038a01526131516000f3fe6080604052600436106101485760003560e01c8063b87d2524116100c0578063c60696ec11610074578063e0e189a011610059578063e0e189a0146103d2578063f28c0498146103e5578063f3995c67146103f857600080fd5b8063c60696ec146103ac578063df2ab5bb146103bf57600080fd5b8063c04b8d59116100a5578063c04b8d5914610352578063c2e3140a14610365578063c45a01551461037857600080fd5b8063b87d25241461032c578063bc6511881461033f57600080fd5b806361d4d5b3116101175780638af3ac85116100fc5780638af3ac85146102c5578063a4a78f0c146102f9578063ac9650d81461030c57600080fd5b806361d4d5b31461029157806369bc35b2146102b257600080fd5b80632c8958f6146101f85780633119049a1461021857806341865270146102765780634659a4941461027e57600080fd5b366101f3573373ffffffffffffffffffffffffffffffffffffffff7f000000000000000000000000000000000000000000000000000000000000000016146101f1576040517f08c379a000000000000000000000000000000000000000000000000000000000815260206004820152601060248201527f4e6f7420574e6174697665546f6b656e0000000000000000000000000000000060448201526064015b60405180910390fd5b005b600080fd5b34801561020457600080fd5b506101f16102133660046126a5565b61040b565b34801561022457600080fd5b5061024c7f000000000000000000000000000000000000000000000000000000000000000081565b60405173ffffffffffffffffffffffffffffffffffffffff90911681526020015b60405180910390f35b6101f16105b5565b6101f161028c366004612747565b6105c7565b6102a461029f3660046127bb565b610682565b60405190815260200161026d565b6101f16102c03660046127d7565b6107ef565b3480156102d157600080fd5b5061024c7f000000000000000000000000000000000000000000000000000000000000000081565b6101f1610307366004612747565b61093b565b61031f61031a366004612807565b610981565b60405161026d91906128ea565b6102a461033a3660046127bb565b610af3565b6102a461034d3660046127bb565b610e2e565b6102a4610360366004612aad565b610f74565b6101f1610373366004612747565b611096565b34801561038457600080fd5b5061024c7f000000000000000000000000000000000000000000000000000000000000000081565b6101f16103ba366004612b51565b6110b4565b6101f16103cd366004612b9b565b6112d8565b6101f16103e0366004612bdd565b611366565b6102a46103f3366004612c3c565b6114cc565b6101f1610406366004612747565b6115c3565b600084138061041a5750600083135b610480576040517f08c379a000000000000000000000000000000000000000000000000000000000815260206004820152601360248201527f5a65726f206c697175696469747920737761700000000000000000000000000060448201526064016101e8565b600061048e82840184612c77565b90506000806104a08360000151611640565b915091506104cf7f00000000000000000000000000000000000000000000000000000000000000008383611661565b5060008060008913610510578373ffffffffffffffffffffffffffffffffffffffff168373ffffffffffffffffffffffffffffffffffffffff161088610541565b8273ffffffffffffffffffffffffffffffffffffffff168473ffffffffffffffffffffffffffffffffffffffff1610895b9150915081156105605761055b848660200151338461167e565b6105aa565b845161056b90611858565b1561059057845161057b9061187b565b855261058a813360008861189d565b506105aa565b806000819055508293506105aa848660200151338461167e565b505050505050505050565b47156105c5576105c53347611ac6565b565b6040517f8fcbaf0c00000000000000000000000000000000000000000000000000000000815233600482015230602482015260448101869052606481018590526001608482015260ff841660a482015260c4810183905260e4810182905273ffffffffffffffffffffffffffffffffffffffff871690638fcbaf0c90610104015b600060405180830381600087803b15801561066257600080fd5b505af1158015610676573d6000803e3d6000fd5b50505050505050505050565b6000816060013561069281611baa565b61075560808401356106aa6060860160408701612d11565b6106ba60e0870160c08801612d11565b60405180604001604052808860200160208101906106d89190612d11565b6106e560208b018b612d11565b6040517fffffffffffffffffffffffffffffffffffffffff000000000000000000000000606093841b811660208301529190921b16603482015260480160405160208183030381529060405281526020013373ffffffffffffffffffffffffffffffffffffffff1681525061189d565b91508260a001358211156107c5576040517f08c379a000000000000000000000000000000000000000000000000000000000815260206004820152601260248201527f546f6f206d75636820726571756573746564000000000000000000000000000060448201526064016101e8565b507fffffffffffffffffffffffffffffffffffffffffffffffffffffffffffffffff600055919050565b600061081a7f0000000000000000000000000000000000000000000000000000000000000000611c17565b905082811015610886576040517f08c379a000000000000000000000000000000000000000000000000000000000815260206004820152601960248201527f496e73756666696369656e7420574e6174697665546f6b656e0000000000000060448201526064016101e8565b8015610936576040517f2e1a7d4d000000000000000000000000000000000000000000000000000000008152600481018290527f000000000000000000000000000000000000000000000000000000000000000073ffffffffffffffffffffffffffffffffffffffff1690632e1a7d4d90602401600060405180830381600087803b15801561091457600080fd5b505af1158015610928573d6000803e3d6000fd5b505050506109368282611ac6565b505050565b7fffffffffffffffffffffffffffffffffffffffffffffffffffffffffffffffff61096587611ca9565b1015610979576109798686868686866105c7565b505050505050565b60608167ffffffffffffffff81111561099c5761099c61296a565b6040519080825280602002602001820160405280156109cf57816020015b60608152602001906001900390816109ba5790505b50905060005b82811015610aec57600080308686858181106109f3576109f3612d2e565b9050602002810190610a059190612d5d565b604051610a13929190612dc9565b600060405180830381855af49150503d8060008114610a4e576040519150601f19603f3d011682016040523d82523d6000602084013e610a53565b606091505b509150915081610ab957604481511015610a6c57600080fd5b60048101905080806020019051810190610a869190612dd9565b6040517f08c379a00000000000000000000000000000000000000000000000000000000081526004016101e89190612e50565b80848481518110610acc57610acc612d2e565b602002602001018190525050508080610ae490612e92565b9150506109d5565b5092915050565b60008160600135610b0381611baa565b6040805180820190915260009080610b1e6020870187612d11565b610b2e6040880160208901612d11565b6040517fffffffffffffffffffffffffffffffffffffffff000000000000000000000000606093841b811660208301529190921b16603482015260480160405160208183030381529060405281526020013373ffffffffffffffffffffffffffffffffffffffff16815250905060008073ffffffffffffffffffffffffffffffffffffffff16856040016020810190610bc79190612d11565b73ffffffffffffffffffffffffffffffffffffffff1614610bf757610bf26060860160408701612d11565b610bf9565b305b90506000610c0d6040870160208801612d11565b73ffffffffffffffffffffffffffffffffffffffff16610c306020880188612d11565b73ffffffffffffffffffffffffffffffffffffffff16109050600080610c71610c5c60208a018a612d11565b610c6c60408b0160208c01612d11565b611d04565b73ffffffffffffffffffffffffffffffffffffffff16639e4e0227338686610c9c8d60800135611d40565b8d60c0016020810190610caf9190612d11565b73ffffffffffffffffffffffffffffffffffffffff1615610ce2578d60c0016020810190610cdd9190612d11565b610d16565b88610d0657610cdd600173fffd8963efd1fc6a506488495d951d5263988d26612eca565b610d166401000276a36001612ef7565b8b604051602001610d279190612f24565b6040516020818303038152906040526040518763ffffffff1660e01b8152600401610d5796959493929190612f6c565b60408051808303816000875af1158015610d75573d6000803e3d6000fd5b505050506040513d601f19601f82011682018060405250810190610d999190612fc7565b9150915082610da85781610daa565b805b610db390612feb565b96508760a00135871015610e23576040517f08c379a000000000000000000000000000000000000000000000000000000000815260206004820152601360248201527f546f6f206c6974746c652072656365697665640000000000000000000000000060448201526064016101e8565b505050505050919050565b60008160600135610e3e81611baa565b610efe6080840135610e566060860160408701612d11565b610e6660e0870160c08801612d11565b6040805180820190915280610e7e60208a018a612d11565b610e8e60408b0160208c01612d11565b6040517fffffffffffffffffffffffffffffffffffffffff000000000000000000000000606093841b811660208301529190921b16603482015260480160405160208183030381529060405281526020013373ffffffffffffffffffffffffffffffffffffffff16815250611d54565b91508260a00135821015610f6e576040517f08c379a000000000000000000000000000000000000000000000000000000000815260206004820152601360248201527f546f6f206c6974746c652072656365697665640000000000000000000000000060448201526064016101e8565b50919050565b60008160400151610f8481611baa565b335b6000610f958560000151611858565b9050610fee856060015182610fae578660200151610fb0565b305b60006040518060400160405280610fca8b60000151611ede565b81526020018773ffffffffffffffffffffffffffffffffffffffff16815250611d54565b6060860152801561100e5784513092506110079061187b565b855261101b565b8460600151935050611021565b50610f86565b836080015183101561108f576040517f08c379a000000000000000000000000000000000000000000000000000000000815260206004820152601360248201527f546f6f206c6974746c652072656365697665640000000000000000000000000060448201526064016101e8565b5050919050565b846110a087611ca9565b1015610979576109798686868686866115c3565b6000821180156110c5575060648211155b6110ce57600080fd5b6040517f70a082310000000000000000000000000000000000000000000000000000000081523060048201526000907f000000000000000000000000000000000000000000000000000000000000000073ffffffffffffffffffffffffffffffffffffffff16906370a0823190602401602060405180830381865afa15801561115b573d6000803e3d6000fd5b505050506040513d601f19601f8201168201806040525081019061117f9190613023565b9050848110156111eb576040517f08c379a000000000000000000000000000000000000000000000000000000000815260206004820152601960248201527f496e73756666696369656e7420574e6174697665546f6b656e0000000000000060448201526064016101e8565b80156112d1576040517f2e1a7d4d000000000000000000000000000000000000000000000000000000008152600481018290527f000000000000000000000000000000000000000000000000000000000000000073ffffffffffffffffffffffffffffffffffffffff1690632e1a7d4d90602401600060405180830381600087803b15801561127957600080fd5b505af115801561128d573d6000803e3d6000fd5b50505050600061271084836112a2919061303c565b6112ac9190613053565b905080156112be576112be8382611ac6565b610979856112cc838561308e565b611ac6565b5050505050565b60006112e384611c17565b90508281101561134f576040517f08c379a000000000000000000000000000000000000000000000000000000000815260206004820152601260248201527f496e73756666696369656e7420746f6b656e000000000000000000000000000060448201526064016101e8565b801561136057611360848383611ef0565b50505050565b600082118015611377575060648211155b61138057600080fd5b6040517f70a0823100000000000000000000000000000000000000000000000000000000815230600482015260009073ffffffffffffffffffffffffffffffffffffffff8716906370a0823190602401602060405180830381865afa1580156113ed573d6000803e3d6000fd5b505050506040513d601f19601f820116820180604052508101906114119190613023565b90508481101561147d576040517f08c379a000000000000000000000000000000000000000000000000000000000815260206004820152601260248201527f496e73756666696369656e7420746f6b656e000000000000000000000000000060448201526064016101e8565b8015610979576000612710611492858461303c565b61149c9190613053565b905080156114af576114af878483611ef0565b6114c387866114be848661308e565b611ef0565b50505050505050565b600081604001356114dc81611baa565b61154f60608401356114f46040860160208701612d11565b604080518082019091526000908061150c8980612d5d565b8080601f0160208091040260200160405190810160405280939291908181526020018383808284376000920191909152505050908252503360209091015261189d565b50600054915082608001358211156107c5576040517f08c379a000000000000000000000000000000000000000000000000000000000815260206004820152601260248201527f546f6f206d75636820726571756573746564000000000000000000000000000060448201526064016101e8565b6040517fd505accf000000000000000000000000000000000000000000000000000000008152336004820152306024820152604481018690526064810185905260ff8416608482015260a4810183905260c4810182905273ffffffffffffffffffffffffffffffffffffffff87169063d505accf9060e401610648565b60008061164d8382612059565b915061165a836014612059565b9050915091565b60006116768461167185856120e2565b61215d565b949350505050565b7f000000000000000000000000000000000000000000000000000000000000000073ffffffffffffffffffffffffffffffffffffffff168473ffffffffffffffffffffffffffffffffffffffff161480156116d95750804710155b1561181f577f000000000000000000000000000000000000000000000000000000000000000073ffffffffffffffffffffffffffffffffffffffff1663d0e30db0826040518263ffffffff1660e01b81526004016000604051808303818588803b15801561174657600080fd5b505af115801561175a573d6000803e3d6000fd5b50506040517fa9059cbb00000000000000000000000000000000000000000000000000000000815273ffffffffffffffffffffffffffffffffffffffff8681166004830152602482018690527f000000000000000000000000000000000000000000000000000000000000000016935063a9059cbb925060440190506020604051808303816000875af11580156117f5573d6000803e3d6000fd5b505050506040513d601f19601f8201168201806040525081019061181991906130a1565b50611360565b3073ffffffffffffffffffffffffffffffffffffffff84160361184c57611847848383611ef0565b611360565b611360848484846121ea565b6000601461186681806130c3565b61187091906130c3565b825110159050919050565b6060611897601480845161188f919061308e565b84919061235b565b92915050565b600073ffffffffffffffffffffffffffffffffffffffff84166118be573093505b6000806118ce8460000151611640565b909250905073ffffffffffffffffffffffffffffffffffffffff808316908216106000806118fc8486611d04565b73ffffffffffffffffffffffffffffffffffffffff1663128acb088a856119228e611d40565b61192b90612feb565b73ffffffffffffffffffffffffffffffffffffffff8d161561194d578c611986565b8761197657611971600173fffd8963efd1fc6a506488495d951d5263988d26612eca565b611986565b6119866401000276a36001612ef7565b8c6040516020016119979190612f24565b6040516020818303038152906040526040518663ffffffff1660e01b81526004016119c69594939291906130d6565b60408051808303816000875af11580156119e4573d6000803e3d6000fd5b505050506040513d601f19601f82011682018060405250810190611a089190612fc7565b91509150600083611a225781611a1d84612feb565b611a2c565b82611a2c83612feb565b909750905073ffffffffffffffffffffffffffffffffffffffff8916600003611ab8578a8114611ab8576040517f08c379a000000000000000000000000000000000000000000000000000000000815260206004820152601b60248201527f4e6f742072656365697665642066756c6c20616d6f756e744f7574000000000060448201526064016101e8565b505050505050949350505050565b6040805160008082526020820190925273ffffffffffffffffffffffffffffffffffffffff8416908390604051611afd9190613128565b60006040518083038185875af1925050503d8060008114611b3a576040519150601f19603f3d011682016040523d82523d6000602084013e611b3f565b606091505b5050905080610936576040517f08c379a000000000000000000000000000000000000000000000000000000000815260206004820152600360248201527f535445000000000000000000000000000000000000000000000000000000000060448201526064016101e8565b80421115611c14576040517f08c379a000000000000000000000000000000000000000000000000000000000815260206004820152601360248201527f5472616e73616374696f6e20746f6f206f6c640000000000000000000000000060448201526064016101e8565b50565b6040517f70a0823100000000000000000000000000000000000000000000000000000000815230600482015260009073ffffffffffffffffffffffffffffffffffffffff8316906370a08231906024015b602060405180830381865afa158015611c85573d6000803e3d6000fd5b505050506040513d601f19601f820116820180604052508101906118979190613023565b6040517fdd62ed3e00000000000000000000000000000000000000000000000000000000815233600482015230602482015260009073ffffffffffffffffffffffffffffffffffffffff83169063dd62ed3e90604401611c68565b6000611d397f0000000000000000000000000000000000000000000000000000000000000000611d3485856120e2565b6124c7565b9392505050565b806000811215611d4f57600080fd5b919050565b600073ffffffffffffffffffffffffffffffffffffffff8416611d75573093505b600080611d858460000151611640565b909250905073ffffffffffffffffffffffffffffffffffffffff80821690831610600080611db38585611d04565b73ffffffffffffffffffffffffffffffffffffffff1663128acb088a85611dd98e611d40565b73ffffffffffffffffffffffffffffffffffffffff8d1615611dfb578c611e34565b87611e2457611e1f600173fffd8963efd1fc6a506488495d951d5263988d26612eca565b611e34565b611e346401000276a36001612ef7565b8c604051602001611e459190612f24565b6040516020818303038152906040526040518663ffffffff1660e01b8152600401611e749594939291906130d6565b60408051808303816000875af1158015611e92573d6000803e3d6000fd5b505050506040513d601f19601f82011682018060405250810190611eb69190612fc7565b9150915082611ec55781611ec7565b805b611ed090612feb565b9a9950505050505050505050565b6060611897600061188f6014806130c3565b6040805173ffffffffffffffffffffffffffffffffffffffff8481166024830152604480830185905283518084039091018152606490920183526020820180517bffffffffffffffffffffffffffffffffffffffffffffffffffffffff167fa9059cbb000000000000000000000000000000000000000000000000000000001790529151600092839290871691611f879190613128565b6000604051808303816000865af19150503d8060008114611fc4576040519150601f19603f3d011682016040523d82523d6000602084013e611fc9565b606091505b5091509150818015611ff3575080511580611ff3575080806020019051810190611ff391906130a1565b6112d1576040517f08c379a000000000000000000000000000000000000000000000000000000000815260206004820152600260248201527f535400000000000000000000000000000000000000000000000000000000000060448201526064016101e8565b600081601401835110156120c9576040517f08c379a000000000000000000000000000000000000000000000000000000000815260206004820152601560248201527f746f416464726573735f6f75744f66426f756e6473000000000000000000000060448201526064016101e8565b5001602001516c01000000000000000000000000900490565b60408051808201909152600080825260208201528173ffffffffffffffffffffffffffffffffffffffff168373ffffffffffffffffffffffffffffffffffffffff16111561212e579091905b506040805180820190915273ffffffffffffffffffffffffffffffffffffffff92831681529116602082015290565b600061216983836124c7565b90503373ffffffffffffffffffffffffffffffffffffffff821614611897576040517f08c379a000000000000000000000000000000000000000000000000000000000815260206004820152601a60248201527f496e76616c69642063616c6c6572206f662063616c6c6261636b00000000000060448201526064016101e8565b6040805173ffffffffffffffffffffffffffffffffffffffff85811660248301528481166044830152606480830185905283518084039091018152608490920183526020820180517bffffffffffffffffffffffffffffffffffffffffffffffffffffffff167f23b872dd0000000000000000000000000000000000000000000000000000000017905291516000928392908816916122899190613128565b6000604051808303816000865af19150503d80600081146122c6576040519150601f19603f3d011682016040523d82523d6000602084013e6122cb565b606091505b50915091508180156122f55750805115806122f55750808060200190518101906122f591906130a1565b610979576040517f08c379a000000000000000000000000000000000000000000000000000000000815260206004820152600360248201527f535446000000000000000000000000000000000000000000000000000000000060448201526064016101e8565b60608182601f0110156123ca576040517f08c379a000000000000000000000000000000000000000000000000000000000815260206004820152600e60248201527f736c6963655f6f766572666c6f7700000000000000000000000000000000000060448201526064016101e8565b81830184511015612437576040517f08c379a000000000000000000000000000000000000000000000000000000000815260206004820152601160248201527f736c6963655f6f75744f66426f756e647300000000000000000000000000000060448201526064016101e8565b60608215801561245657604051915060008252602082016040526124be565b6040519150601f8416801560200281840101858101878315602002848b0101015b8183101561248f578051835260209283019201612477565b5050858452601f017fffffffffffffffffffffffffffffffffffffffffffffffffffffffffffffffe016604052505b50949350505050565b6000816020015173ffffffffffffffffffffffffffffffffffffffff16826000015173ffffffffffffffffffffffffffffffffffffffff1610612566576040517f08c379a000000000000000000000000000000000000000000000000000000000815260206004820152601760248201527f496e76616c6964206f72646572206f6620746f6b656e7300000000000000000060448201526064016101e8565b82826000015183602001516040516020016125a492919073ffffffffffffffffffffffffffffffffffffffff92831681529116602082015260400190565b604080517fffffffffffffffffffffffffffffffffffffffffffffffffffffffffffffffe0818403018152908290528051602091820120612668939290917f177d5fbf994f4d130c008797563306f1a168dc689f81b2fa23b4396931014d9191017fff00000000000000000000000000000000000000000000000000000000000000815260609390931b7fffffffffffffffffffffffffffffffffffffffff0000000000000000000000001660018401526015830191909152603582015260550190565b604080517fffffffffffffffffffffffffffffffffffffffffffffffffffffffffffffffe081840301815291905280516020909101209392505050565b600080600080606085870312156126bb57600080fd5b8435935060208501359250604085013567ffffffffffffffff808211156126e157600080fd5b818701915087601f8301126126f557600080fd5b81358181111561270457600080fd5b88602082850101111561271657600080fd5b95989497505060200194505050565b73ffffffffffffffffffffffffffffffffffffffff81168114611c1457600080fd5b60008060008060008060c0878903121561276057600080fd5b863561276b81612725565b95506020870135945060408701359350606087013560ff8116811461278f57600080fd5b9598949750929560808101359460a0909101359350915050565b600060e08284031215610f6e57600080fd5b600060e082840312156127cd57600080fd5b611d3983836127a9565b600080604083850312156127ea57600080fd5b8235915060208301356127fc81612725565b809150509250929050565b6000806020838503121561281a57600080fd5b823567ffffffffffffffff8082111561283257600080fd5b818501915085601f83011261284657600080fd5b81358181111561285557600080fd5b8660208260051b850101111561286a57600080fd5b60209290920196919550909350505050565b60005b8381101561289757818101518382015260200161287f565b50506000910152565b600081518084526128b881602086016020860161287c565b601f017fffffffffffffffffffffffffffffffffffffffffffffffffffffffffffffffe0169290920160200192915050565b6000602080830181845280855180835260408601915060408160051b870101925083870160005b8281101561295d577fffffffffffffffffffffffffffffffffffffffffffffffffffffffffffffffc088860301845261294b8583516128a0565b94509285019290850190600101612911565b5092979650505050505050565b7f4e487b7100000000000000000000000000000000000000000000000000000000600052604160045260246000fd5b60405160a0810167ffffffffffffffff811182821017156129bc576129bc61296a565b60405290565b604051601f82017fffffffffffffffffffffffffffffffffffffffffffffffffffffffffffffffe016810167ffffffffffffffff81118282101715612a0957612a0961296a565b604052919050565b600067ffffffffffffffff821115612a2b57612a2b61296a565b50601f017fffffffffffffffffffffffffffffffffffffffffffffffffffffffffffffffe01660200190565b600082601f830112612a6857600080fd5b8135612a7b612a7682612a11565b6129c2565b818152846020838601011115612a9057600080fd5b816020850160208301376000918101602001919091529392505050565b600060208284031215612abf57600080fd5b813567ffffffffffffffff80821115612ad757600080fd5b9083019060a08286031215612aeb57600080fd5b612af3612999565b823582811115612b0257600080fd5b612b0e87828601612a57565b82525060208301359150612b2182612725565b81602082015260408301356040820152606083013560608201526080830135608082015280935050505092915050565b60008060008060808587031215612b6757600080fd5b843593506020850135612b7981612725565b9250604085013591506060850135612b9081612725565b939692955090935050565b600080600060608486031215612bb057600080fd5b8335612bbb81612725565b9250602084013591506040840135612bd281612725565b809150509250925092565b600080600080600060a08688031215612bf557600080fd5b8535612c0081612725565b9450602086013593506040860135612c1781612725565b9250606086013591506080860135612c2e81612725565b809150509295509295909350565b600060208284031215612c4e57600080fd5b813567ffffffffffffffff811115612c6557600080fd5b820160a08185031215611d3957600080fd5b600060208284031215612c8957600080fd5b813567ffffffffffffffff80821115612ca157600080fd5b9083019060408286031215612cb557600080fd5b604051604081018181108382111715612cd057612cd061296a565b604052823582811115612ce257600080fd5b612cee87828601612a57565b82525060208301359250612d0183612725565b6020810192909252509392505050565b600060208284031215612d2357600080fd5b8135611d3981612725565b7f4e487b7100000000000000000000000000000000000000000000000000000000600052603260045260246000fd5b60008083357fffffffffffffffffffffffffffffffffffffffffffffffffffffffffffffffe1843603018112612d9257600080fd5b83018035915067ffffffffffffffff821115612dad57600080fd5b602001915036819003821315612dc257600080fd5b9250929050565b8183823760009101908152919050565b600060208284031215612deb57600080fd5b815167ffffffffffffffff811115612e0257600080fd5b8201601f81018413612e1357600080fd5b8051612e21612a7682612a11565b818152856020838501011115612e3657600080fd5b612e4782602083016020860161287c565b95945050505050565b602081526000611d3960208301846128a0565b7f4e487b7100000000000000000000000000000000000000000000000000000000600052601160045260246000fd5b60007fffffffffffffffffffffffffffffffffffffffffffffffffffffffffffffffff8203612ec357612ec3612e63565b5060010190565b73ffffffffffffffffffffffffffffffffffffffff828116828216039080821115610aec57610aec612e63565b73ffffffffffffffffffffffffffffffffffffffff818116838216019080821115610aec57610aec612e63565b602081526000825160406020840152612f4060608401826128a0565b905073ffffffffffffffffffffffffffffffffffffffff60208501511660408401528091505092915050565b600073ffffffffffffffffffffffffffffffffffffffff80891683528088166020840152861515604084015285606084015280851660808401525060c060a0830152612fbb60c08301846128a0565b98975050505050505050565b60008060408385031215612fda57600080fd5b505080516020909101519092909150565b60007f8000000000000000000000000000000000000000000000000000000000000000820361301c5761301c612e63565b5060000390565b60006020828403121561303557600080fd5b5051919050565b808202811582820484141761189757611897612e63565b600082613089577f4e487b7100000000000000000000000000000000000000000000000000000000600052601260045260246000fd5b500490565b8181038181111561189757611897612e63565b6000602082840312156130b357600080fd5b81518015158114611d3957600080fd5b8082018082111561189757611897612e63565b600073ffffffffffffffffffffffffffffffffffffffff8088168352861515602084015285604084015280851660608401525060a0608083015261311d60a08301846128a0565b979650505050505050565b6000825161313a81846020870161287c565b919091019291505056fea164736f6c6343000814000a",
  "linkReferences": {},
  "deployedLinkReferences": {}
}