{
  "abi": [
    {
      "inputs": [
        {
          "internalType": "string",
          "name": "name",
          "type": "string"
        },
        {
          "internalType": "string",
          "name": "ticker",
          "type": "string"
        },
        {
          "internalType": "uint256",
          "name": "_totalSupply",
          "type": "uint256"
        },
        {
          "internalType": "address",
          "name": "owner",
          "type": "address"
        }
      ],
      "stateMutability": "nonpayable",
      "type": "constructor"
    },
    {
      "inputs": [
        {
          "internalType": "address",
          "name": "spender",
          "type": "address"
        },
        {
          "internalType": "uint256",
          "name": "allowance",
          "type": "uint256"
        },
        {
          "internalType": "uint256",
          "name": "needed",
          "type": "uint256"
        }
      ],
      "name": "ERC20InsufficientAllowance",
      "type": "error"
    },
    {
      "inputs": [
        {
          "internalType": "address",
          "name": "sender",
          "type": "address"
        },
        {
          "internalType": "uint256",
          "name": "balance",
          "type": "uint256"
        },
        {
          "internalType": "uint256",
          "name": "needed",
          "type": "uint256"
        }
      ],
      "name": "ERC20InsufficientBalance",
      "type": "error"
    },
    {
      "inputs": [
        {
          "internalType": "address",
          "name": "approver",
          "type": "address"
        }
      ],
      "name": "ERC20InvalidApprover",
      "type": "error"
    },
    {
      "inputs": [
        {
          "internalType": "address",
          "name": "receiver",
          "type": "address"
        }
      ],
      "name": "ERC20InvalidReceiver",
      "type": "error"
    },
    {
      "inputs": [
        {
          "internalType": "address",
          "name": "sender",
          "type": "address"
        }
      ],
      "name": "ERC20InvalidSender",
      "type": "error"
    },
    {
      "inputs": [
        {
          "internalType": "address",
          "name": "spender",
          "type": "address"
        }
      ],
      "name": "ERC20InvalidSpender",
      "type": "error"
    },
    {
      "anonymous": false,
      "inputs": [
        {
          "indexed": true,
          "internalType": "address",
          "name": "owner",
          "type": "address"
        },
        {
          "indexed": true,
          "internalType": "address",
          "name": "spender",
          "type": "address"
        },
        {
          "indexed": false,
          "internalType": "uint256",
          "name": "value",
          "type": "uint256"
        }
      ],
      "name": "Approval",
      "type": "event"
    },
    {
      "anonymous": false,
      "inputs": [
        {
          "indexed": true,
          "internalType": "address",
          "name": "from",
          "type": "address"
        },
        {
          "indexed": true,
          "internalType": "address",
          "name": "to",
          "type": "address"
        },
        {
          "indexed": false,
          "internalType": "uint256",
          "name": "value",
          "type": "uint256"
        }
      ],
      "name": "Transfer",
      "type": "event"
    },
    {
      "inputs": [],
      "name": "_owner",
      "outputs": [
        {
          "internalType": "address",
          "name": "",
          "type": "address"
        }
      ],
      "stateMutability": "view",
      "type": "function"
    },
    {
      "inputs": [
        {
          "internalType": "address",
          "name": "owner",
          "type": "address"
        },
        {
          "internalType": "address",
          "name": "spender",
          "type": "address"
        }
      ],
      "name": "allowance",
      "outputs": [
        {
          "internalType": "uint256",
          "name": "",
          "type": "uint256"
        }
      ],
      "stateMutability": "view",
      "type": "function"
    },
    {
      "inputs": [
        {
          "internalType": "address",
          "name": "spender",
          "type": "address"
        },
        {
          "internalType": "uint256",
          "name": "value",
          "type": "uint256"
        }
      ],
      "name": "approve",
      "outputs": [
        {
          "internalType": "bool",
          "name": "",
          "type": "bool"
        }
      ],
      "stateMutability": "nonpayable",
      "type": "function"
    },
    {
      "inputs": [
        {
          "internalType": "address",
          "name": "account",
          "type": "address"
        }
      ],
      "name": "balanceOf",
      "outputs": [
        {
          "internalType": "uint256",
          "name": "",
          "type": "uint256"
        }
      ],
      "stateMutability": "view",
      "type": "function"
    },
    {
      "inputs": [],
      "name": "decimals",
      "outputs": [
        {
          "internalType": "uint8",
          "name": "",
          "type": "uint8"
        }
      ],
      "stateMutability": "view",
      "type": "function"
    },
    {
      "inputs": [],
      "name": "name",
      "outputs": [
        {
          "internalType": "string",
          "name": "",
          "type": "string"
        }
      ],
      "stateMutability": "view",
      "type": "function"
    },
    {
      "inputs": [],
      "name": "symbol",
      "outputs": [
        {
          "internalType": "string",
          "name": "",
          "type": "string"
        }
      ],
      "stateMutability": "view",
      "type": "function"
    },
    {
      "inputs": [],
      "name": "totalSupply",
      "outputs": [
        {
          "internalType": "uint256",
          "name": "",
          "type": "uint256"
        }
      ],
      "stateMutability": "view",
      "type": "function"
    },
    {
      "inputs": [
        {
          "internalType": "address",
          "name": "to",
          "type": "address"
        },
        {
          "internalType": "uint256",
          "name": "value",
          "type": "uint256"
        }
      ],
      "name": "transfer",
      "outputs": [
        {
          "internalType": "bool",
          "name": "",
          "type": "bool"
        }
      ],
      "stateMutability": "nonpayable",
      "type": "function"
    },
    {
      "inputs": [
        {
          "internalType": "address",
          "name": "from",
          "type": "address"
        },
        {
          "internalType": "address",
          "name": "to",
          "type": "address"
        },
        {
          "internalType": "uint256",
          "name": "value",
          "type": "uint256"
        }
      ],
      "name": "transferFrom",
      "outputs": [
        {
          "internalType": "bool",
          "name": "",
          "type": "bool"
        }
      ],
      "stateMutability": "nonpayable",
      "type": "function"
    },
    {
      "inputs": [
        {
          "internalType": "address",
          "name": "to",
          "type": "address"
        }
      ],
      "name": "transferOwnership",
      "outputs": [],
      "stateMutability": "nonpayable",
      "type": "function"
    },
    {
      "inputs": [
        {
          "internalType": "address",
          "name": "from",
          "type": "address"
        },
        {
          "internalType": "address",
          "name": "to",
          "type": "address"
        },
        {
          "internalType": "uint256",
          "name": "value",
          "type": "uint256"
        }
      ],
      "name": "update",
      "outputs": [],
      "stateMutability": "nonpayable",
      "type": "function"
    }
  ],
  "bytecode": {
    "object": "0x60806040523480156200001157600080fd5b5060405162000cf938038062000cf983398101604081905262000034916200028f565b83836003620000448382620003b3565b506004620000538282620003b3565b5050506200006a600082846200009460201b60201c565b600580546001600160a01b0319166001600160a01b039290921691909117905550620004a7915050565b6001600160a01b038316620000c3578060026000828254620000b791906200047f565b909155506200013a9050565b6001600160a01b038316600090815260208190526040902054818110156200011b5760405163391434e360e21b81526001600160a01b0385166004820152602481018290526044810183905260640160405180910390fd5b6001600160a01b03841660009081526020819052604090209082900390555b6001600160a01b038216620001585760028054829003905562000177565b6001600160a01b03821660009081526020819052604090208054820190555b816001600160a01b0316836001600160a01b03167fddf252ad1be2c89b69c2b068fc378daa952ba7f163c4a11628f55a4df523b3ef83604051620001bd91815260200190565b60405180910390a3505050565b634e487b7160e01b600052604160045260246000fd5b600082601f830112620001f257600080fd5b81516001600160401b03808211156200020f576200020f620001ca565b604051601f8301601f19908116603f011681019082821181831017156200023a576200023a620001ca565b816040528381526020925086838588010111156200025757600080fd5b600091505b838210156200027b57858201830151818301840152908201906200025c565b600093810190920192909252949350505050565b60008060008060808587031215620002a657600080fd5b84516001600160401b0380821115620002be57600080fd5b620002cc88838901620001e0565b95506020870151915080821115620002e357600080fd5b50620002f287828801620001e0565b60408701516060880151919550935090506001600160a01b03811681146200031957600080fd5b939692955090935050565b600181811c908216806200033957607f821691505b6020821081036200035a57634e487b7160e01b600052602260045260246000fd5b50919050565b601f821115620003ae57600081815260208120601f850160051c81016020861015620003895750805b601f850160051c820191505b81811015620003aa5782815560010162000395565b5050505b505050565b81516001600160401b03811115620003cf57620003cf620001ca565b620003e781620003e0845462000324565b8462000360565b602080601f8311600181146200041f5760008415620004065750858301515b600019600386901b1c1916600185901b178555620003aa565b600085815260208120601f198616915b8281101562000450578886015182559484019460019091019084016200042f565b50858210156200046f5787850151600019600388901b60f8161c191681555b5050505050600190811b01905550565b80820180821115620004a157634e487b7160e01b600052601160045260246000fd5b92915050565b61084280620004b76000396000f3fe608060405234801561001057600080fd5b50600436106100b45760003560e01c80638ce516da116100715780638ce516da1461015757806395d89b411461016c578063a9059cbb14610174578063b2bdfa7b14610187578063dd62ed3e146101b2578063f2fde38b146101eb57600080fd5b806306fdde03146100b9578063095ea7b3146100d757806318160ddd146100fa57806323b872dd1461010c578063313ce5671461011f57806370a082311461012e575b600080fd5b6100c16101fe565b6040516100ce919061068c565b60405180910390f35b6100ea6100e53660046106f6565b610290565b60405190151581526020016100ce565b6002545b6040519081526020016100ce565b6100ea61011a366004610720565b6102aa565b604051601281526020016100ce565b6100fe61013c36600461075c565b6001600160a01b031660009081526020819052604090205490565b61016a610165366004610720565b6102ce565b005b6100c1610329565b6100ea6101823660046106f6565b610338565b60055461019a906001600160a01b031681565b6040516001600160a01b0390911681526020016100ce565b6100fe6101c036600461077e565b6001600160a01b03918216600090815260016020908152604080832093909416825291909152205490565b61016a6101f936600461075c565b610346565b60606003805461020d906107b1565b80601f0160208091040260200160405190810160405280929190818152602001828054610239906107b1565b80156102865780601f1061025b57610100808354040283529160200191610286565b820191906000526020600020905b81548152906001019060200180831161026957829003601f168201915b5050505050905090565b60003361029e8185856103ae565b60019150505b92915050565b6000336102b88582856103bb565b6102c3858585610439565b506001949350505050565b6005546001600160a01b031633146103195760405162461bcd60e51b81526020600482015260096024820152682737ba1037bbb732b960b91b60448201526064015b60405180910390fd5b61032483838361048d565b505050565b60606004805461020d906107b1565b60003361029e818585610439565b6005546001600160a01b0316331461038c5760405162461bcd60e51b81526020600482015260096024820152682737ba1037bbb732b960b91b6044820152606401610310565b600580546001600160a01b0319166001600160a01b0392909216919091179055565b61032483838360016105b7565b6001600160a01b038381166000908152600160209081526040808320938616835292905220546000198114610433578181101561042457604051637dc7a0d960e11b81526001600160a01b03841660048201526024810182905260448101839052606401610310565b610433848484840360006105b7565b50505050565b6001600160a01b03831661046357604051634b637e8f60e11b815260006004820152602401610310565b6001600160a01b0382166103195760405163ec442f0560e01b815260006004820152602401610310565b6001600160a01b0383166104b85780600260008282546104ad91906107eb565b9091555061052a9050565b6001600160a01b0383166000908152602081905260409020548181101561050b5760405163391434e360e21b81526001600160a01b03851660048201526024810182905260448101839052606401610310565b6001600160a01b03841660009081526020819052604090209082900390555b6001600160a01b03821661054657600280548290039055610565565b6001600160a01b03821660009081526020819052604090208054820190555b816001600160a01b0316836001600160a01b03167fddf252ad1be2c89b69c2b068fc378daa952ba7f163c4a11628f55a4df523b3ef836040516105aa91815260200190565b60405180910390a3505050565b6001600160a01b0384166105e15760405163e602df0560e01b815260006004820152602401610310565b6001600160a01b03831661060b57604051634a1406b160e11b815260006004820152602401610310565b6001600160a01b038085166000908152600160209081526040808320938716835292905220829055801561043357826001600160a01b0316846001600160a01b03167f8c5be1e5ebec7d5bd14f71427d1e84f3dd0314c0f7b2291e5b200ac8c7c3b9258460405161067e91815260200190565b60405180910390a350505050565b600060208083528351808285015260005b818110156106b95785810183015185820160400152820161069d565b506000604082860101526040601f19601f8301168501019250505092915050565b80356001600160a01b03811681146106f157600080fd5b919050565b6000806040838503121561070957600080fd5b610712836106da565b946020939093013593505050565b60008060006060848603121561073557600080fd5b61073e846106da565b925061074c602085016106da565b9150604084013590509250925092565b60006020828403121561076e57600080fd5b610777826106da565b9392505050565b6000806040838503121561079157600080fd5b61079a836106da565b91506107a8602084016106da565b90509250929050565b600181811c908216806107c557607f821691505b6020821081036107e557634e487b7160e01b600052602260045260246000fd5b50919050565b808201808211156102a457634e487b7160e01b600052601160045260246000fdfea2646970667358221220dc5af1d03b1d2a96e2601486572345c1cf306b1488790f19bb6cf4c57889efb764736f6c63430008140033",
    "linkReferences": {}
  },
  "methodIdentifiers": {
    "_owner()": "b2bdfa7b",
    "allowance(address,address)": "dd62ed3e",
    "approve(address,uint256)": "095ea7b3",
    "balanceOf(address)": "70a08231",
    "decimals()": "313ce567",
    "name()": "06fdde03",
    "symbol()": "95d89b41",
    "totalSupply()": "18160ddd",
    "transfer(address,uint256)": "a9059cbb",
    "transferFrom(address,address,uint256)": "23b872dd",
    "transferOwnership(address)": "f2fde38b",
    "update(address,address,uint256)": "8ce516da"
  },
  "id": 27
}