{
  "abi": [
    {
      "inputs": [
        {
          "internalType": "address",
          "name": "sfs_registrar",
          "type": "address"
        }
      ],
      "stateMutability": "nonpayable",
      "type": "constructor"
    },
    {
      "inputs": [
        {
          "internalType": "string",
          "name": "name",
          "type": "string"
        },
        {
          "internalType": "string",
          "name": "ticker",
          "type": "string"
        },
        {
          "internalType": "uint256",
          "name": "totalSupply",
          "type": "uint256"
        },
        {
          "internalType": "address",
          "name": "sfs_registrar",
          "type": "address"
        }
      ],
      "name": "createToken",
      "outputs": [
        {
          "internalType": "address",
          "name": "location",
          "type": "address"
        }
      ],
      "stateMutability": "nonpayable",
      "type": "function"
    }
  ],
  "bytecode": {
    "object": "0x60806040526000805461ffff1916905534801561001b57600080fd5b506040516112a13803806112a183398101604081905261003a9161013d565b8033610046828261004f565b50505050610186565b6000805460ff16156100b95760405162461bcd60e51b815260206004820152602960248201527f416c726561647920726567697374657265642e2043616e6e6f742072656769736044820152683a32b91030b3b0b4b760b91b606482015260840160405180910390fd5b6000805460ff19166001179055604051632210724360e11b81526001600160a01b038381166004830152849190821690634420e486906024016020604051808303816000875af1158015610111573d6000803e3d6000fd5b505050506040513d601f19601f82011682018060405250810190610135919061016d565b949350505050565b60006020828403121561014f57600080fd5b81516001600160a01b038116811461016657600080fd5b9392505050565b60006020828403121561017f57600080fd5b5051919050565b61110c806101956000396000f3fe608060405234801561001057600080fd5b506004361061002b5760003560e01c806334f359f914610030575b600080fd5b61004361003e366004610158565b61005f565b6040516001600160a01b03909116815260200160405180910390f35b6000808585853386604051610073906100a8565b61008195949392919061022a565b604051809103906000f08015801561009d573d6000803e3d6000fd5b509695505050505050565b610e5f8061027883390190565b634e487b7160e01b600052604160045260246000fd5b600082601f8301126100dc57600080fd5b813567ffffffffffffffff808211156100f7576100f76100b5565b604051601f8301601f19908116603f0116810190828211818310171561011f5761011f6100b5565b8160405283815286602085880101111561013857600080fd5b836020870160208301376000602085830101528094505050505092915050565b6000806000806080858703121561016e57600080fd5b843567ffffffffffffffff8082111561018657600080fd5b610192888389016100cb565b955060208701359150808211156101a857600080fd5b506101b5878288016100cb565b9350506040850135915060608501356001600160a01b03811681146101d957600080fd5b939692955090935050565b6000815180845260005b8181101561020a576020818501810151868301820152016101ee565b506000602082860101526020601f19601f83011685010191505092915050565b60a08152600061023d60a08301886101e4565b828103602084015261024f81886101e4565b604084019690965250506001600160a01b03928316606082015291166080909101529291505056fe60806040526005805460ff191690553480156200001b57600080fd5b5060405162000e5f38038062000e5f8339810160408190526200003e91620003c8565b808286866003620000508382620004f0565b5060046200005f8282620004f0565b505050620000748282620000bc60201b60201c565b5050506200008b60008385620001b360201b60201c565b50600580546001600160a01b0390921661010002610100600160a81b031990921691909117905550620005f8915050565b60055460009060ff16156200012a5760405162461bcd60e51b815260206004820152602960248201527f416c726561647920726567697374657265642e2043616e6e6f742072656769736044820152683a32b91030b3b0b4b760b91b60648201526084015b60405180910390fd5b6005805460ff19166001179055604051632210724360e11b81526001600160a01b038381166004830152849190821690634420e486906024016020604051808303816000875af115801562000183573d6000803e3d6000fd5b505050506040513d601f19601f82011682018060405250810190620001a99190620005bc565b9150505b92915050565b6001600160a01b038316620001e2578060026000828254620001d69190620005d6565b90915550620002569050565b6001600160a01b03831660009081526020819052604090205481811015620002375760405163391434e360e21b81526001600160a01b0385166004820152602481018290526044810183905260640162000121565b6001600160a01b03841660009081526020819052604090209082900390555b6001600160a01b038216620002745760028054829003905562000293565b6001600160a01b03821660009081526020819052604090208054820190555b816001600160a01b0316836001600160a01b03167fddf252ad1be2c89b69c2b068fc378daa952ba7f163c4a11628f55a4df523b3ef83604051620002d991815260200190565b60405180910390a3505050565b634e487b7160e01b600052604160045260246000fd5b600082601f8301126200030e57600080fd5b81516001600160401b03808211156200032b576200032b620002e6565b604051601f8301601f19908116603f01168101908282118183101715620003565762000356620002e6565b816040528381526020925086838588010111156200037357600080fd5b600091505b8382101562000397578582018301518183018401529082019062000378565b600093810190920192909252949350505050565b80516001600160a01b0381168114620003c357600080fd5b919050565b600080600080600060a08688031215620003e157600080fd5b85516001600160401b0380821115620003f957600080fd5b6200040789838a01620002fc565b965060208801519150808211156200041e57600080fd5b506200042d88828901620002fc565b945050604086015192506200044560608701620003ab565b91506200045560808701620003ab565b90509295509295909350565b600181811c908216806200047657607f821691505b6020821081036200049757634e487b7160e01b600052602260045260246000fd5b50919050565b601f821115620004eb57600081815260208120601f850160051c81016020861015620004c65750805b601f850160051c820191505b81811015620004e757828155600101620004d2565b5050505b505050565b81516001600160401b038111156200050c576200050c620002e6565b62000524816200051d845462000461565b846200049d565b602080601f8311600181146200055c5760008415620005435750858301515b600019600386901b1c1916600185901b178555620004e7565b600085815260208120601f198616915b828110156200058d578886015182559484019460019091019084016200056c565b5085821015620005ac5787850151600019600388901b60f8161c191681555b5050505050600190811b01905550565b600060208284031215620005cf57600080fd5b5051919050565b80820180821115620001ad57634e487b7160e01b600052601160045260246000fd5b61085780620006086000396000f3fe608060405234801561001057600080fd5b50600436106100b45760003560e01c80638ce516da116100715780638ce516da1461015757806395d89b411461016c578063a9059cbb14610174578063b2bdfa7b14610187578063dd62ed3e146101b7578063f2fde38b146101f057600080fd5b806306fdde03146100b9578063095ea7b3146100d757806318160ddd146100fa57806323b872dd1461010c578063313ce5671461011f57806370a082311461012e575b600080fd5b6100c1610203565b6040516100ce91906106a1565b60405180910390f35b6100ea6100e536600461070b565b610295565b60405190151581526020016100ce565b6002545b6040519081526020016100ce565b6100ea61011a366004610735565b6102af565b604051601281526020016100ce565b6100fe61013c366004610771565b6001600160a01b031660009081526020819052604090205490565b61016a610165366004610735565b6102d3565b005b6100c1610333565b6100ea61018236600461070b565b610342565b60055461019f9061010090046001600160a01b031681565b6040516001600160a01b0390911681526020016100ce565b6100fe6101c5366004610793565b6001600160a01b03918216600090815260016020908152604080832093909416825291909152205490565b61016a6101fe366004610771565b610350565b606060038054610212906107c6565b80601f016020809104026020016040519081016040528092919081815260200182805461023e906107c6565b801561028b5780601f106102605761010080835404028352916020019161028b565b820191906000526020600020905b81548152906001019060200180831161026e57829003601f168201915b5050505050905090565b6000336102a38185856103c3565b60019150505b92915050565b6000336102bd8582856103d0565b6102c885858561044e565b506001949350505050565b60055461010090046001600160a01b031633146103235760405162461bcd60e51b81526020600482015260096024820152682737ba1037bbb732b960b91b60448201526064015b60405180910390fd5b61032e8383836104a2565b505050565b606060048054610212906107c6565b6000336102a381858561044e565b60055461010090046001600160a01b0316331461039b5760405162461bcd60e51b81526020600482015260096024820152682737ba1037bbb732b960b91b604482015260640161031a565b600580546001600160a01b0390921661010002610100600160a81b0319909216919091179055565b61032e83838360016105cc565b6001600160a01b038381166000908152600160209081526040808320938616835292905220546000198114610448578181101561043957604051637dc7a0d960e11b81526001600160a01b0384166004820152602481018290526044810183905260640161031a565b610448848484840360006105cc565b50505050565b6001600160a01b03831661047857604051634b637e8f60e11b81526000600482015260240161031a565b6001600160a01b0382166103235760405163ec442f0560e01b81526000600482015260240161031a565b6001600160a01b0383166104cd5780600260008282546104c29190610800565b9091555061053f9050565b6001600160a01b038316600090815260208190526040902054818110156105205760405163391434e360e21b81526001600160a01b0385166004820152602481018290526044810183905260640161031a565b6001600160a01b03841660009081526020819052604090209082900390555b6001600160a01b03821661055b5760028054829003905561057a565b6001600160a01b03821660009081526020819052604090208054820190555b816001600160a01b0316836001600160a01b03167fddf252ad1be2c89b69c2b068fc378daa952ba7f163c4a11628f55a4df523b3ef836040516105bf91815260200190565b60405180910390a3505050565b6001600160a01b0384166105f65760405163e602df0560e01b81526000600482015260240161031a565b6001600160a01b03831661062057604051634a1406b160e11b81526000600482015260240161031a565b6001600160a01b038085166000908152600160209081526040808320938716835292905220829055801561044857826001600160a01b0316846001600160a01b03167f8c5be1e5ebec7d5bd14f71427d1e84f3dd0314c0f7b2291e5b200ac8c7c3b9258460405161069391815260200190565b60405180910390a350505050565b600060208083528351808285015260005b818110156106ce578581018301518582016040015282016106b2565b506000604082860101526040601f19601f8301168501019250505092915050565b80356001600160a01b038116811461070657600080fd5b919050565b6000806040838503121561071e57600080fd5b610727836106ef565b946020939093013593505050565b60008060006060848603121561074a57600080fd5b610753846106ef565b9250610761602085016106ef565b9150604084013590509250925092565b60006020828403121561078357600080fd5b61078c826106ef565b9392505050565b600080604083850312156107a657600080fd5b6107af836106ef565b91506107bd602084016106ef565b90509250929050565b600181811c908216806107da57607f821691505b6020821081036107fa57634e487b7160e01b600052602260045260246000fd5b50919050565b808201808211156102a957634e487b7160e01b600052601160045260246000fdfea26469706673582212204d2034a0cc6cda88ba23430b0694cc8b81ea71541f3a87030013a1127bbf1f4464736f6c63430008140033a2646970667358221220e975b0d453ba4ae9437421895346f5265702716e3d6ed4a46cbea41cb1f69cb364736f6c63430008140033",
    "linkReferences": {}
  },
  "methodIdentifiers": {
    "createToken(string,string,uint256,address)": "34f359f9"
  },
  "id": 28
}