{
  "_format": "hh-sol-artifact-1",
  "contractName": "V3Migrator",
  "sourceName": "contracts/V3Migrator.sol",
  "abi": [
    {
      "inputs": [
        {
          "internalType": "address",
          "name": "_factory",
          "type": "address"
        },
        {
          "internalType": "address",
          "name": "_WNativeToken",
          "type": "address"
        },
        {
          "internalType": "address",
          "name": "_nonfungiblePositionManager",
          "type": "address"
        },
        {
          "internalType": "address",
          "name": "_poolDeployer",
          "type": "address"
        }
      ],
      "stateMutability": "nonpayable",
      "type": "constructor"
    },
    {
      "inputs": [],
      "name": "WNativeToken",
      "outputs": [
        {
          "internalType": "address",
          "name": "",
          "type": "address"
        }
      ],
      "stateMutability": "view",
      "type": "function"
    },
    {
      "inputs": [
        {
          "internalType": "address",
          "name": "token0",
          "type": "address"
        },
        {
          "internalType": "address",
          "name": "token1",
          "type": "address"
        },
        {
          "internalType": "uint160",
          "name": "sqrtPriceX96",
          "type": "uint160"
        }
      ],
      "name": "createAndInitializePoolIfNecessary",
      "outputs": [
        {
          "internalType": "address",
          "name": "pool",
          "type": "address"
        }
      ],
      "stateMutability": "payable",
      "type": "function"
    },
    {
      "inputs": [],
      "name": "factory",
      "outputs": [
        {
          "internalType": "address",
          "name": "",
          "type": "address"
        }
      ],
      "stateMutability": "view",
      "type": "function"
    },
    {
      "inputs": [
        {
          "components": [
            {
              "internalType": "address",
              "name": "pair",
              "type": "address"
            },
            {
              "internalType": "uint256",
              "name": "liquidityToMigrate",
              "type": "uint256"
            },
            {
              "internalType": "uint8",
              "name": "percentageToMigrate",
              "type": "uint8"
            },
            {
              "internalType": "address",
              "name": "token0",
              "type": "address"
            },
            {
              "internalType": "address",
              "name": "token1",
              "type": "address"
            },
            {
              "internalType": "int24",
              "name": "tickLower",
              "type": "int24"
            },
            {
              "internalType": "int24",
              "name": "tickUpper",
              "type": "int24"
            },
            {
              "internalType": "uint256",
              "name": "amount0Min",
              "type": "uint256"
            },
            {
              "internalType": "uint256",
              "name": "amount1Min",
              "type": "uint256"
            },
            {
              "internalType": "address",
              "name": "recipient",
              "type": "address"
            },
            {
              "internalType": "uint256",
              "name": "deadline",
              "type": "uint256"
            },
            {
              "internalType": "bool",
              "name": "refundAsNative",
              "type": "bool"
            }
          ],
          "internalType": "struct IV3Migrator.MigrateParams",
          "name": "params",
          "type": "tuple"
        }
      ],
      "name": "migrate",
      "outputs": [],
      "stateMutability": "nonpayable",
      "type": "function"
    },
    {
      "inputs": [
        {
          "internalType": "bytes[]",
          "name": "data",
          "type": "bytes[]"
        }
      ],
      "name": "multicall",
      "outputs": [
        {
          "internalType": "bytes[]",
          "name": "results",
          "type": "bytes[]"
        }
      ],
      "stateMutability": "payable",
      "type": "function"
    },
    {
      "inputs": [],
      "name": "nonfungiblePositionManager",
      "outputs": [
        {
          "internalType": "address",
          "name": "",
          "type": "address"
        }
      ],
      "stateMutability": "view",
      "type": "function"
    },
    {
      "inputs": [],
      "name": "poolDeployer",
      "outputs": [
        {
          "internalType": "address",
          "name": "",
          "type": "address"
        }
      ],
      "stateMutability": "view",
      "type": "function"
    },
    {
      "inputs": [
        {
          "internalType": "address",
          "name": "token",
          "type": "address"
        },
        {
          "internalType": "uint256",
          "name": "value",
          "type": "uint256"
        },
        {
          "internalType": "uint256",
          "name": "deadline",
          "type": "uint256"
        },
        {
          "internalType": "uint8",
          "name": "v",
          "type": "uint8"
        },
        {
          "internalType": "bytes32",
          "name": "r",
          "type": "bytes32"
        },
        {
          "internalType": "bytes32",
          "name": "s",
          "type": "bytes32"
        }
      ],
      "name": "selfPermit",
      "outputs": [],
      "stateMutability": "payable",
      "type": "function"
    },
    {
      "inputs": [
        {
          "internalType": "address",
          "name": "token",
          "type": "address"
        },
        {
          "internalType": "uint256",
          "name": "nonce",
          "type": "uint256"
        },
        {
          "internalType": "uint256",
          "name": "expiry",
          "type": "uint256"
        },
        {
          "internalType": "uint8",
          "name": "v",
          "type": "uint8"
        },
        {
          "internalType": "bytes32",
          "name": "r",
          "type": "bytes32"
        },
        {
          "internalType": "bytes32",
          "name": "s",
          "type": "bytes32"
        }
      ],
      "name": "selfPermitAllowed",
      "outputs": [],
      "stateMutability": "payable",
      "type": "function"
    },
    {
      "inputs": [
        {
          "internalType": "address",
          "name": "token",
          "type": "address"
        },
        {
          "internalType": "uint256",
          "name": "nonce",
          "type": "uint256"
        },
        {
          "internalType": "uint256",
          "name": "expiry",
          "type": "uint256"
        },
        {
          "internalType": "uint8",
          "name": "v",
          "type": "uint8"
        },
        {
          "internalType": "bytes32",
          "name": "r",
          "type": "bytes32"
        },
        {
          "internalType": "bytes32",
          "name": "s",
          "type": "bytes32"
        }
      ],
      "name": "selfPermitAllowedIfNecessary",
      "outputs": [],
      "stateMutability": "payable",
      "type": "function"
    },
    {
      "inputs": [
        {
          "internalType": "address",
          "name": "token",
          "type": "address"
        },
        {
          "internalType": "uint256",
          "name": "value",
          "type": "uint256"
        },
        {
          "internalType": "uint256",
          "name": "deadline",
          "type": "uint256"
        },
        {
          "internalType": "uint8",
          "name": "v",
          "type": "uint8"
        },
        {
          "internalType": "bytes32",
          "name": "r",
          "type": "bytes32"
        },
        {
          "internalType": "bytes32",
          "name": "s",
          "type": "bytes32"
        }
      ],
      "name": "selfPermitIfNecessary",
      "outputs": [],
      "stateMutability": "payable",
      "type": "function"
    },
    {
      "stateMutability": "payable",
      "type": "receive"
    }
  ],
  "bytecode": "0x6101006040523480156200001257600080fd5b5060405162001f0838038062001f08833981016040819052620000359162000075565b6001600160a01b03938416608052831660a05290821660c0521660e052620000d2565b80516001600160a01b03811681146200007057600080fd5b919050565b600080600080608085870312156200008c57600080fd5b620000978562000058565b9350620000a76020860162000058565b9250620000b76040860162000058565b9150620000c76060860162000058565b905092959194509250565b60805160a05160c05160e051611db0620001586000396000818161028d015281816109340152818161096e015281816109980152610b4a01526000818160dd0152818161020601528181610bae01528181610c2a01528181610d270152610da3015260006101820152600081816102d4015281816104a8015261057d0152611db06000f3fe6080604052600436106100c05760003560e01c8063a4a78f0c11610074578063c2e3140a1161004e578063c2e3140a146102af578063c45a0155146102c2578063f3995c67146102f657600080fd5b8063a4a78f0c14610248578063ac9650d81461025b578063b44a27221461027b57600080fd5b806351246d6e116100a557806351246d6e146101e15780638af3ac85146101f45780638be74fb61461022857600080fd5b80633119049a146101705780634659a494146101ce57600080fd5b3661016b573373ffffffffffffffffffffffffffffffffffffffff7f00000000000000000000000000000000000000000000000000000000000000001614610169576040517f08c379a000000000000000000000000000000000000000000000000000000000815260206004820152601060248201527f4e6f7420574e6174697665546f6b656e0000000000000000000000000000000060448201526064015b60405180910390fd5b005b600080fd5b34801561017c57600080fd5b506101a47f000000000000000000000000000000000000000000000000000000000000000081565b60405173ffffffffffffffffffffffffffffffffffffffff90911681526020015b60405180910390f35b6101696101dc36600461161d565b610309565b6101a46101ef366004611679565b6103c4565b34801561020057600080fd5b506101a47f000000000000000000000000000000000000000000000000000000000000000081565b34801561023457600080fd5b506101696102433660046116c4565b61064f565b61016961025636600461161d565b610e41565b61026e6102693660046116dd565b610e87565b6040516101c591906117c0565b34801561028757600080fd5b506101a47f000000000000000000000000000000000000000000000000000000000000000081565b6101696102bd36600461161d565b610ff9565b3480156102ce57600080fd5b506101a47f000000000000000000000000000000000000000000000000000000000000000081565b61016961030436600461161d565b611013565b6040517f8fcbaf0c00000000000000000000000000000000000000000000000000000000815233600482015230602482015260448101869052606481018590526001608482015260ff841660a482015260c4810183905260e4810182905273ffffffffffffffffffffffffffffffffffffffff871690638fcbaf0c90610104015b600060405180830381600087803b1580156103a457600080fd5b505af11580156103b8573d6000803e3d6000fd5b50505050505050505050565b60008273ffffffffffffffffffffffffffffffffffffffff168473ffffffffffffffffffffffffffffffffffffffff161061045b576040517f08c379a000000000000000000000000000000000000000000000000000000000815260206004820152601760248201527f496e76616c6964206f72646572206f6620746f6b656e730000000000000000006044820152606401610160565b6040517fd9a641e100000000000000000000000000000000000000000000000000000000815273ffffffffffffffffffffffffffffffffffffffff858116600483015284811660248301527f0000000000000000000000000000000000000000000000000000000000000000169063d9a641e190604401602060405180830381865afa1580156104ef573d6000803e3d6000fd5b505050506040513d601f19601f820116820180604052508101906105139190611840565b905073ffffffffffffffffffffffffffffffffffffffff81166105fb576040517fe343361500000000000000000000000000000000000000000000000000000000815273ffffffffffffffffffffffffffffffffffffffff858116600483015284811660248301527f0000000000000000000000000000000000000000000000000000000000000000169063e3433615906044016020604051808303816000875af11580156105c6573d6000803e3d6000fd5b505050506040513d601f19601f820116820180604052508101906105ea9190611840565b90506105f68183611090565b610648565b600061061c8273ffffffffffffffffffffffffffffffffffffffff1661110d565b90508073ffffffffffffffffffffffffffffffffffffffff16600003610646576106468284611090565b505b9392505050565b6000610661606083016040840161185d565b60ff16116106cb576040517f08c379a000000000000000000000000000000000000000000000000000000000815260206004820152601460248201527f50657263656e7461676520746f6f20736d616c6c0000000000000000000000006044820152606401610160565b60646106dd606083016040840161185d565b60ff161115610748576040517f08c379a000000000000000000000000000000000000000000000000000000000815260206004820152601460248201527f50657263656e7461676520746f6f206c617267650000000000000000000000006044820152606401610160565b610755602082018261187a565b73ffffffffffffffffffffffffffffffffffffffff166323b872dd3361077e602085018561187a565b6040517fffffffff0000000000000000000000000000000000000000000000000000000060e085901b16815273ffffffffffffffffffffffffffffffffffffffff928316600482015291166024820152602084013560448201526064016020604051808303816000875af11580156107fa573d6000803e3d6000fd5b505050506040513d601f19601f8201168201806040525081019061081e91906118a5565b5060008061082f602084018461187a565b6040517f89afcb4400000000000000000000000000000000000000000000000000000000815230600482015273ffffffffffffffffffffffffffffffffffffffff91909116906389afcb449060240160408051808303816000875af115801561089c573d6000803e3d6000fd5b505050506040513d601f19601f820116820180604052508101906108c091906118c2565b9092509050600060646108d9606086016040870161185d565b6108e69060ff1685611915565b6108f0919061192c565b905060006064610906606087016040880161185d565b6109139060ff1685611915565b61091d919061192c565b9050610959610932608087016060880161187a565b7f00000000000000000000000000000000000000000000000000000000000000008461118a565b61099361096c60a087016080880161187a565b7f00000000000000000000000000000000000000000000000000000000000000008361118a565b6000807f000000000000000000000000000000000000000000000000000000000000000073ffffffffffffffffffffffffffffffffffffffff16639cc1a2836040518061014001604052808a60600160208101906109f1919061187a565b73ffffffffffffffffffffffffffffffffffffffff168152602001610a1c60a08c0160808d0161187a565b73ffffffffffffffffffffffffffffffffffffffff168152602001610a4760c08c0160a08d01611976565b60020b8152602001610a5f60e08c0160c08d01611976565b60020b8152602081018890526040810187905260e08b013560608201526101008b0135608082015260a001610a9c6101408c016101208d0161187a565b73ffffffffffffffffffffffffffffffffffffffff1681526020018a61014001358152506040518263ffffffff1660e01b8152600401610adc9190611993565b6080604051808303816000875af1158015610afb573d6000803e3d6000fd5b505050506040513d601f19601f82011682018060405250810190610b1f9190611a65565b93509350505085821015610cc65783821015610b7057610b70610b486080890160608a0161187a565b7f0000000000000000000000000000000000000000000000000000000000000000600061118a565b6000610b7c8388611ab8565b9050610b9061018089016101608a01611acb565b8015610bf6575073ffffffffffffffffffffffffffffffffffffffff7f000000000000000000000000000000000000000000000000000000000000000016610bde60808a0160608b0161187a565b73ffffffffffffffffffffffffffffffffffffffff16145b15610caa576040517f2e1a7d4d000000000000000000000000000000000000000000000000000000008152600481018290527f000000000000000000000000000000000000000000000000000000000000000073ffffffffffffffffffffffffffffffffffffffff1690632e1a7d4d90602401600060405180830381600087803b158015610c8357600080fd5b505af1158015610c97573d6000803e3d6000fd5b50505050610ca533826112fa565b610cc4565b610cc4610cbd60808a0160608b0161187a565b33836113e3565b505b84811015610e385782811015610ce957610ce9610b4860a0890160808a0161187a565b6000610cf58287611ab8565b9050610d0961018089016101608a01611acb565b8015610d6f575073ffffffffffffffffffffffffffffffffffffffff7f000000000000000000000000000000000000000000000000000000000000000016610d5760a08a0160808b0161187a565b73ffffffffffffffffffffffffffffffffffffffff16145b15610e23576040517f2e1a7d4d000000000000000000000000000000000000000000000000000000008152600481018290527f000000000000000000000000000000000000000000000000000000000000000073ffffffffffffffffffffffffffffffffffffffff1690632e1a7d4d90602401600060405180830381600087803b158015610dfc57600080fd5b505af1158015610e10573d6000803e3d6000fd5b50505050610e1e33826112fa565b610e36565b610e36610cbd60a08a0160808b0161187a565b505b50505050505050565b7fffffffffffffffffffffffffffffffffffffffffffffffffffffffffffffffff610e6b8761154c565b1015610e7f57610e7f868686868686610309565b505050505050565b60608167ffffffffffffffff811115610ea257610ea2611ae8565b604051908082528060200260200182016040528015610ed557816020015b6060815260200190600190039081610ec05790505b50905060005b82811015610ff25760008030868685818110610ef957610ef9611b17565b9050602002810190610f0b9190611b46565b604051610f19929190611bb2565b600060405180830381855af49150503d8060008114610f54576040519150601f19603f3d011682016040523d82523d6000602084013e610f59565b606091505b509150915081610fbf57604481511015610f7257600080fd5b60048101905080806020019051810190610f8c9190611bc2565b6040517f08c379a00000000000000000000000000000000000000000000000000000000081526004016101609190611c8d565b80848481518110610fd257610fd2611b17565b602002602001018190525050508080610fea90611ca0565b915050610edb565b5092915050565b846110038761154c565b1015610e7f57610e7f8686868686865b6040517fd505accf000000000000000000000000000000000000000000000000000000008152336004820152306024820152604481018690526064810185905260ff8416608482015260a4810183905260c4810182905273ffffffffffffffffffffffffffffffffffffffff87169063d505accf9060e40161038a565b6040517ff637731d00000000000000000000000000000000000000000000000000000000815273ffffffffffffffffffffffffffffffffffffffff828116600483015283169063f637731d90602401600060405180830381600087803b1580156110f957600080fd5b505af1158015610e7f573d6000803e3d6000fd5b60008173ffffffffffffffffffffffffffffffffffffffff1663e76c01e46040518163ffffffff1660e01b815260040160c060405180830381865afa15801561115a573d6000803e3d6000fd5b505050506040513d601f19601f8201168201806040525081019061117e9190611cef565b50939695505050505050565b6040805173ffffffffffffffffffffffffffffffffffffffff8481166024830152604480830185905283518084039091018152606490920183526020820180517bffffffffffffffffffffffffffffffffffffffffffffffffffffffff167f095ea7b30000000000000000000000000000000000000000000000000000000017905291516000928392908716916112219190611d6e565b6000604051808303816000865af19150503d806000811461125e576040519150601f19603f3d011682016040523d82523d6000602084013e611263565b606091505b509150915081801561128d57508051158061128d57508080602001905181019061128d91906118a5565b6112f3576040517f08c379a000000000000000000000000000000000000000000000000000000000815260206004820152600260248201527f53410000000000000000000000000000000000000000000000000000000000006044820152606401610160565b5050505050565b6040805160008082526020820190925273ffffffffffffffffffffffffffffffffffffffff84169083906040516113319190611d6e565b60006040518083038185875af1925050503d806000811461136e576040519150601f19603f3d011682016040523d82523d6000602084013e611373565b606091505b50509050806113de576040517f08c379a000000000000000000000000000000000000000000000000000000000815260206004820152600360248201527f53544500000000000000000000000000000000000000000000000000000000006044820152606401610160565b505050565b6040805173ffffffffffffffffffffffffffffffffffffffff8481166024830152604480830185905283518084039091018152606490920183526020820180517bffffffffffffffffffffffffffffffffffffffffffffffffffffffff167fa9059cbb00000000000000000000000000000000000000000000000000000000179052915160009283929087169161147a9190611d6e565b6000604051808303816000865af19150503d80600081146114b7576040519150601f19603f3d011682016040523d82523d6000602084013e6114bc565b606091505b50915091508180156114e65750805115806114e65750808060200190518101906114e691906118a5565b6112f3576040517f08c379a000000000000000000000000000000000000000000000000000000000815260206004820152600260248201527f53540000000000000000000000000000000000000000000000000000000000006044820152606401610160565b6040517fdd62ed3e00000000000000000000000000000000000000000000000000000000815233600482015230602482015260009073ffffffffffffffffffffffffffffffffffffffff83169063dd62ed3e90604401602060405180830381865afa1580156115bf573d6000803e3d6000fd5b505050506040513d601f19601f820116820180604052508101906115e39190611d8a565b92915050565b73ffffffffffffffffffffffffffffffffffffffff8116811461160b57600080fd5b50565b60ff8116811461160b57600080fd5b60008060008060008060c0878903121561163657600080fd5b8635611641816115e9565b95506020870135945060408701359350606087013561165f8161160e565b9598949750929560808101359460a0909101359350915050565b60008060006060848603121561168e57600080fd5b8335611699816115e9565b925060208401356116a9816115e9565b915060408401356116b9816115e9565b809150509250925092565b600061018082840312156116d757600080fd5b50919050565b600080602083850312156116f057600080fd5b823567ffffffffffffffff8082111561170857600080fd5b818501915085601f83011261171c57600080fd5b81358181111561172b57600080fd5b8660208260051b850101111561174057600080fd5b60209290920196919550909350505050565b60005b8381101561176d578181015183820152602001611755565b50506000910152565b6000815180845261178e816020860160208601611752565b601f017fffffffffffffffffffffffffffffffffffffffffffffffffffffffffffffffe0169290920160200192915050565b6000602080830181845280855180835260408601915060408160051b870101925083870160005b82811015611833577fffffffffffffffffffffffffffffffffffffffffffffffffffffffffffffffc0888603018452611821858351611776565b945092850192908501906001016117e7565b5092979650505050505050565b60006020828403121561185257600080fd5b8151610648816115e9565b60006020828403121561186f57600080fd5b81356106488161160e565b60006020828403121561188c57600080fd5b8135610648816115e9565b801515811461160b57600080fd5b6000602082840312156118b757600080fd5b815161064881611897565b600080604083850312156118d557600080fd5b505080516020909101519092909150565b7f4e487b7100000000000000000000000000000000000000000000000000000000600052601160045260246000fd5b80820281158282048414176115e3576115e36118e6565b600082611962577f4e487b7100000000000000000000000000000000000000000000000000000000600052601260045260246000fd5b500490565b8060020b811461160b57600080fd5b60006020828403121561198857600080fd5b813561064881611967565b815173ffffffffffffffffffffffffffffffffffffffff168152610140810160208301516119d9602084018273ffffffffffffffffffffffffffffffffffffffff169052565b5060408301516119ee604084018260020b9052565b506060830151611a03606084018260020b9052565b506080830151608083015260a083015160a083015260c083015160c083015260e083015160e083015261010080840151611a548285018273ffffffffffffffffffffffffffffffffffffffff169052565b505061012092830151919092015290565b60008060008060808587031215611a7b57600080fd5b8451935060208501516fffffffffffffffffffffffffffffffff81168114611aa257600080fd5b6040860151606090960151949790965092505050565b818103818111156115e3576115e36118e6565b600060208284031215611add57600080fd5b813561064881611897565b7f4e487b7100000000000000000000000000000000000000000000000000000000600052604160045260246000fd5b7f4e487b7100000000000000000000000000000000000000000000000000000000600052603260045260246000fd5b60008083357fffffffffffffffffffffffffffffffffffffffffffffffffffffffffffffffe1843603018112611b7b57600080fd5b83018035915067ffffffffffffffff821115611b9657600080fd5b602001915036819003821315611bab57600080fd5b9250929050565b8183823760009101908152919050565b600060208284031215611bd457600080fd5b815167ffffffffffffffff80821115611bec57600080fd5b818401915084601f830112611c0057600080fd5b815181811115611c1257611c12611ae8565b604051601f82017fffffffffffffffffffffffffffffffffffffffffffffffffffffffffffffffe0908116603f01168101908382118183101715611c5857611c58611ae8565b81604052828152876020848701011115611c7157600080fd5b611c82836020830160208801611752565b979650505050505050565b6020815260006106486020830184611776565b60007fffffffffffffffffffffffffffffffffffffffffffffffffffffffffffffffff8203611cd157611cd16118e6565b5060010190565b805161ffff81168114611cea57600080fd5b919050565b60008060008060008060c08789031215611d0857600080fd5b8651611d13816115e9565b6020880151909650611d2481611967565b9450611d3260408801611cd8565b93506060870151611d428161160e565b9250611d5060808801611cd8565b915060a0870151611d6081611897565b809150509295509295509295565b60008251611d80818460208701611752565b9190910192915050565b600060208284031215611d9c57600080fd5b505191905056fea164736f6c6343000814000a",
  "linkReferences": {},
  "deployedLinkReferences": {}
}