{
  "abi": [
    {
      "inputs": [
        {
          "internalType": "address",
          "name": "_poolDeployer",
          "type": "address"
        },
        {
          "internalType": "address",
          "name": "_SFS_Register_Contract",
          "type": "address"
        },
        {
          "internalType": "address",
          "name": "_recipient",
          "type": "address"
        }
      ],
      "stateMutability": "nonpayable",
      "type": "constructor"
    },
    {
      "anonymous": false,
      "inputs": [
        {
          "indexed": false,
          "internalType": "uint16",
          "name": "newDefaultCommunityFee",
          "type": "uint16"
        }
      ],
      "name": "DefaultCommunityFee",
      "type": "event"
    },
    {
      "anonymous": false,
      "inputs": [
        {
          "indexed": false,
          "internalType": "uint16",
          "name": "newDefaultFee",
          "type": "uint16"
        }
      ],
      "name": "DefaultFee",
      "type": "event"
    },
    {
      "anonymous": false,
      "inputs": [
        {
          "indexed": false,
          "internalType": "address",
          "name": "defaultPluginFactoryAddress",
          "type": "address"
        }
      ],
      "name": "DefaultPluginFactory",
      "type": "event"
    },
    {
      "anonymous": false,
      "inputs": [
        {
          "indexed": false,
          "internalType": "int24",
          "name": "newDefaultTickspacing",
          "type": "int24"
        }
      ],
      "name": "DefaultTickspacing",
      "type": "event"
    },
    {
      "anonymous": false,
      "inputs": [
        {
          "indexed": true,
          "internalType": "address",
          "name": "previousOwner",
          "type": "address"
        },
        {
          "indexed": true,
          "internalType": "address",
          "name": "newOwner",
          "type": "address"
        }
      ],
      "name": "OwnershipTransferStarted",
      "type": "event"
    },
    {
      "anonymous": false,
      "inputs": [
        {
          "indexed": true,
          "internalType": "address",
          "name": "previousOwner",
          "type": "address"
        },
        {
          "indexed": true,
          "internalType": "address",
          "name": "newOwner",
          "type": "address"
        }
      ],
      "name": "OwnershipTransferred",
      "type": "event"
    },
    {
      "anonymous": false,
      "inputs": [
        {
          "indexed": true,
          "internalType": "address",
          "name": "token0",
          "type": "address"
        },
        {
          "indexed": true,
          "internalType": "address",
          "name": "token1",
          "type": "address"
        },
        {
          "indexed": false,
          "internalType": "address",
          "name": "pool",
          "type": "address"
        }
      ],
      "name": "Pool",
      "type": "event"
    },
    {
      "anonymous": false,
      "inputs": [
        {
          "indexed": false,
          "internalType": "uint256",
          "name": "timestamp",
          "type": "uint256"
        }
      ],
      "name": "RenounceOwnershipFinish",
      "type": "event"
    },
    {
      "anonymous": false,
      "inputs": [
        {
          "indexed": false,
          "internalType": "uint256",
          "name": "timestamp",
          "type": "uint256"
        },
        {
          "indexed": false,
          "internalType": "uint256",
          "name": "finishTimestamp",
          "type": "uint256"
        }
      ],
      "name": "RenounceOwnershipStart",
      "type": "event"
    },
    {
      "anonymous": false,
      "inputs": [
        {
          "indexed": false,
          "internalType": "uint256",
          "name": "timestamp",
          "type": "uint256"
        }
      ],
      "name": "RenounceOwnershipStop",
      "type": "event"
    },
    {
      "anonymous": false,
      "inputs": [
        {
          "indexed": true,
          "internalType": "bytes32",
          "name": "role",
          "type": "bytes32"
        },
        {
          "indexed": true,
          "internalType": "bytes32",
          "name": "previousAdminRole",
          "type": "bytes32"
        },
        {
          "indexed": true,
          "internalType": "bytes32",
          "name": "newAdminRole",
          "type": "bytes32"
        }
      ],
      "name": "RoleAdminChanged",
      "type": "event"
    },
    {
      "anonymous": false,
      "inputs": [
        {
          "indexed": true,
          "internalType": "bytes32",
          "name": "role",
          "type": "bytes32"
        },
        {
          "indexed": true,
          "internalType": "address",
          "name": "account",
          "type": "address"
        },
        {
          "indexed": true,
          "internalType": "address",
          "name": "sender",
          "type": "address"
        }
      ],
      "name": "RoleGranted",
      "type": "event"
    },
    {
      "anonymous": false,
      "inputs": [
        {
          "indexed": true,
          "internalType": "bytes32",
          "name": "role",
          "type": "bytes32"
        },
        {
          "indexed": true,
          "internalType": "address",
          "name": "account",
          "type": "address"
        },
        {
          "indexed": true,
          "internalType": "address",
          "name": "sender",
          "type": "address"
        }
      ],
      "name": "RoleRevoked",
      "type": "event"
    },
    {
      "inputs": [],
      "name": "DEFAULT_ADMIN_ROLE",
      "outputs": [
        {
          "internalType": "bytes32",
          "name": "",
          "type": "bytes32"
        }
      ],
      "stateMutability": "view",
      "type": "function"
    },
    {
      "inputs": [],
      "name": "POOLS_ADMINISTRATOR_ROLE",
      "outputs": [
        {
          "internalType": "bytes32",
          "name": "",
          "type": "bytes32"
        }
      ],
      "stateMutability": "view",
      "type": "function"
    },
    {
      "inputs": [],
      "name": "POOL_INIT_CODE_HASH",
      "outputs": [
        {
          "internalType": "bytes32",
          "name": "",
          "type": "bytes32"
        }
      ],
      "stateMutability": "view",
      "type": "function"
    },
    {
      "inputs": [],
      "name": "acceptOwnership",
      "outputs": [],
      "stateMutability": "nonpayable",
      "type": "function"
    },
    {
      "inputs": [],
      "name": "communityVault",
      "outputs": [
        {
          "internalType": "address",
          "name": "",
          "type": "address"
        }
      ],
      "stateMutability": "view",
      "type": "function"
    },
    {
      "inputs": [
        {
          "internalType": "address",
          "name": "token0",
          "type": "address"
        },
        {
          "internalType": "address",
          "name": "token1",
          "type": "address"
        }
      ],
      "name": "computePoolAddress",
      "outputs": [
        {
          "internalType": "address",
          "name": "pool",
          "type": "address"
        }
      ],
      "stateMutability": "view",
      "type": "function"
    },
    {
      "inputs": [
        {
          "internalType": "address",
          "name": "tokenA",
          "type": "address"
        },
        {
          "internalType": "address",
          "name": "tokenB",
          "type": "address"
        }
      ],
      "name": "createPool",
      "outputs": [
        {
          "internalType": "address",
          "name": "pool",
          "type": "address"
        }
      ],
      "stateMutability": "nonpayable",
      "type": "function"
    },
    {
      "inputs": [],
      "name": "defaultCommunityFee",
      "outputs": [
        {
          "internalType": "uint16",
          "name": "",
          "type": "uint16"
        }
      ],
      "stateMutability": "view",
      "type": "function"
    },
    {
      "inputs": [],
      "name": "defaultConfigurationForPool",
      "outputs": [
        {
          "internalType": "uint16",
          "name": "communityFee",
          "type": "uint16"
        },
        {
          "internalType": "int24",
          "name": "tickSpacing",
          "type": "int24"
        },
        {
          "internalType": "uint16",
          "name": "fee",
          "type": "uint16"
        }
      ],
      "stateMutability": "view",
      "type": "function"
    },
    {
      "inputs": [],
      "name": "defaultFee",
      "outputs": [
        {
          "internalType": "uint16",
          "name": "",
          "type": "uint16"
        }
      ],
      "stateMutability": "view",
      "type": "function"
    },
    {
      "inputs": [],
      "name": "defaultPluginFactory",
      "outputs": [
        {
          "internalType": "contract IAlgebraPluginFactory",
          "name": "",
          "type": "address"
        }
      ],
      "stateMutability": "view",
      "type": "function"
    },
    {
      "inputs": [],
      "name": "defaultTickspacing",
      "outputs": [
        {
          "internalType": "int24",
          "name": "",
          "type": "int24"
        }
      ],
      "stateMutability": "view",
      "type": "function"
    },
    {
      "inputs": [
        {
          "internalType": "bytes32",
          "name": "role",
          "type": "bytes32"
        }
      ],
      "name": "getRoleAdmin",
      "outputs": [
        {
          "internalType": "bytes32",
          "name": "",
          "type": "bytes32"
        }
      ],
      "stateMutability": "view",
      "type": "function"
    },
    {
      "inputs": [
        {
          "internalType": "bytes32",
          "name": "role",
          "type": "bytes32"
        },
        {
          "internalType": "uint256",
          "name": "index",
          "type": "uint256"
        }
      ],
      "name": "getRoleMember",
      "outputs": [
        {
          "internalType": "address",
          "name": "",
          "type": "address"
        }
      ],
      "stateMutability": "view",
      "type": "function"
    },
    {
      "inputs": [
        {
          "internalType": "bytes32",
          "name": "role",
          "type": "bytes32"
        }
      ],
      "name": "getRoleMemberCount",
      "outputs": [
        {
          "internalType": "uint256",
          "name": "",
          "type": "uint256"
        }
      ],
      "stateMutability": "view",
      "type": "function"
    },
    {
      "inputs": [
        {
          "internalType": "bytes32",
          "name": "role",
          "type": "bytes32"
        },
        {
          "internalType": "address",
          "name": "account",
          "type": "address"
        }
      ],
      "name": "grantRole",
      "outputs": [],
      "stateMutability": "nonpayable",
      "type": "function"
    },
    {
      "inputs": [
        {
          "internalType": "bytes32",
          "name": "role",
          "type": "bytes32"
        },
        {
          "internalType": "address",
          "name": "account",
          "type": "address"
        }
      ],
      "name": "hasRole",
      "outputs": [
        {
          "internalType": "bool",
          "name": "",
          "type": "bool"
        }
      ],
      "stateMutability": "view",
      "type": "function"
    },
    {
      "inputs": [
        {
          "internalType": "bytes32",
          "name": "role",
          "type": "bytes32"
        },
        {
          "internalType": "address",
          "name": "account",
          "type": "address"
        }
      ],
      "name": "hasRoleOrOwner",
      "outputs": [
        {
          "internalType": "bool",
          "name": "",
          "type": "bool"
        }
      ],
      "stateMutability": "view",
      "type": "function"
    },
    {
      "inputs": [],
      "name": "owner",
      "outputs": [
        {
          "internalType": "address",
          "name": "",
          "type": "address"
        }
      ],
      "stateMutability": "view",
      "type": "function"
    },
    {
      "inputs": [],
      "name": "pendingOwner",
      "outputs": [
        {
          "internalType": "address",
          "name": "",
          "type": "address"
        }
      ],
      "stateMutability": "view",
      "type": "function"
    },
    {
      "inputs": [
        {
          "internalType": "address",
          "name": "",
          "type": "address"
        },
        {
          "internalType": "address",
          "name": "",
          "type": "address"
        }
      ],
      "name": "poolByPair",
      "outputs": [
        {
          "internalType": "address",
          "name": "",
          "type": "address"
        }
      ],
      "stateMutability": "view",
      "type": "function"
    },
    {
      "inputs": [],
      "name": "poolDeployer",
      "outputs": [
        {
          "internalType": "address",
          "name": "",
          "type": "address"
        }
      ],
      "stateMutability": "view",
      "type": "function"
    },
    {
      "inputs": [],
      "name": "renounceOwnership",
      "outputs": [],
      "stateMutability": "nonpayable",
      "type": "function"
    },
    {
      "inputs": [],
      "name": "renounceOwnershipStartTimestamp",
      "outputs": [
        {
          "internalType": "uint256",
          "name": "",
          "type": "uint256"
        }
      ],
      "stateMutability": "view",
      "type": "function"
    },
    {
      "inputs": [
        {
          "internalType": "bytes32",
          "name": "role",
          "type": "bytes32"
        },
        {
          "internalType": "address",
          "name": "account",
          "type": "address"
        }
      ],
      "name": "renounceRole",
      "outputs": [],
      "stateMutability": "nonpayable",
      "type": "function"
    },
    {
      "inputs": [
        {
          "internalType": "bytes32",
          "name": "role",
          "type": "bytes32"
        },
        {
          "internalType": "address",
          "name": "account",
          "type": "address"
        }
      ],
      "name": "revokeRole",
      "outputs": [],
      "stateMutability": "nonpayable",
      "type": "function"
    },
    {
      "inputs": [
        {
          "internalType": "uint16",
          "name": "newDefaultCommunityFee",
          "type": "uint16"
        }
      ],
      "name": "setDefaultCommunityFee",
      "outputs": [],
      "stateMutability": "nonpayable",
      "type": "function"
    },
    {
      "inputs": [
        {
          "internalType": "uint16",
          "name": "newDefaultFee",
          "type": "uint16"
        }
      ],
      "name": "setDefaultFee",
      "outputs": [],
      "stateMutability": "nonpayable",
      "type": "function"
    },
    {
      "inputs": [
        {
          "internalType": "address",
          "name": "newDefaultPluginFactory",
          "type": "address"
        }
      ],
      "name": "setDefaultPluginFactory",
      "outputs": [],
      "stateMutability": "nonpayable",
      "type": "function"
    },
    {
      "inputs": [
        {
          "internalType": "int24",
          "name": "newDefaultTickspacing",
          "type": "int24"
        }
      ],
      "name": "setDefaultTickspacing",
      "outputs": [],
      "stateMutability": "nonpayable",
      "type": "function"
    },
    {
      "inputs": [],
      "name": "startRenounceOwnership",
      "outputs": [],
      "stateMutability": "nonpayable",
      "type": "function"
    },
    {
      "inputs": [],
      "name": "stopRenounceOwnership",
      "outputs": [],
      "stateMutability": "nonpayable",
      "type": "function"
    },
    {
      "inputs": [
        {
          "internalType": "bytes4",
          "name": "interfaceId",
          "type": "bytes4"
        }
      ],
      "name": "supportsInterface",
      "outputs": [
        {
          "internalType": "bool",
          "name": "",
          "type": "bool"
        }
      ],
      "stateMutability": "view",
      "type": "function"
    },
    {
      "inputs": [
        {
          "internalType": "address",
          "name": "newOwner",
          "type": "address"
        }
      ],
      "name": "transferOwnership",
      "outputs": [],
      "stateMutability": "nonpayable",
      "type": "function"
    }
  ],
  "bytecode": {
    "object": "0x60c06040526004805460ff191690553480156200001b57600080fd5b50604051620031b5380380620031b58339810160408190526200003e9162000663565b81816200004b3362000164565b620000578282620001c2565b5050506001600160a01b0383166200006e57600080fd5b6001600160a01b0383166080526040513390839083906200008f9062000638565b6001600160a01b03938416815291831660208301529091166040820152606001604051809103906000f080158015620000cc573d6000803e3d6000fd5b506001600160a01b031660a0526004805467ffffffffff0000001916653c01f4000000179055604051603c81527f7d7979096f943139ebee59f01c077a0f0766d06c40c86d596f23ed2561547cce9060200160405180910390a16040516101f481527fddc0c6f0b581e0d51bfe90ff138e4a548f94515c4dbcb12f5e98fdf0f75039839060200160405180910390a150505062000715565b6200018360006200017d6000546001600160a01b031690565b620002c8565b6200018e81620002f3565b6000546001600160a01b031615620001bf57620001bf6000620001b96000546001600160a01b031690565b6200030e565b50565b60045460009060ff16156200022f5760405162461bcd60e51b815260206004820152602960248201527f416c726561647920726567697374657265642e2043616e6e6f742072656769736044820152683a32b91030b3b0b4b760b91b606482015260840160405180910390fd5b6004805460ff19166001178155604051632210724360e11b815284916001600160a01b03831691634420e4869162000278918791016001600160a01b0391909116815260200190565b6020604051808303816000875af115801562000298573d6000803e3d6000fd5b505050506040513d601f19601f82011682018060405250810190620002be9190620006ad565b9150505b92915050565b620002d4828262000334565b6000828152600360205260409020620002ee9082620003b9565b505050565b600180546001600160a01b0319169055620001bf81620003d7565b6200031a828262000427565b6000828152600360205260409020620002ee9082620004cb565b60008281526002602090815260408083206001600160a01b038516845290915290205460ff1615620003b55760008281526002602090815260408083206001600160a01b0385168085529252808320805460ff1916905551339285917ff6391f5c32d9c69d2a47ea670b442974b53935d1edc7fd64eb21e047a839171b9190a45b5050565b6000620003d0836001600160a01b038416620004e2565b9392505050565b600080546001600160a01b038381166001600160a01b0319831681178455604051919092169283917f8be0079c531659141344cd1fd0a4f28419497f9722a3daafe3b4186f6b6457e09190a35050565b60008281526002602090815260408083206001600160a01b038516845290915290205460ff16620003b55760008281526002602090815260408083206001600160a01b03851684529091529020805460ff19166001179055620004873390565b6001600160a01b0316816001600160a01b0316837f2f8788117e7eff1d82e926ec794901d17c78024a50270940304540a733656f0d60405160405180910390a45050565b6000620003d0836001600160a01b038416620005e6565b60008181526001830160205260408120548015620005db57600062000509600183620006c7565b85549091506000906200051f90600190620006c7565b90508181146200058b576000866000018281548110620005435762000543620006e9565b9060005260206000200154905080876000018481548110620005695762000569620006e9565b6000918252602080832090910192909255918252600188019052604090208390555b85548690806200059f576200059f620006ff565b600190038181906000526020600020016000905590558560010160008681526020019081526020016000206000905560019350505050620002c2565b6000915050620002c2565b60008181526001830160205260408120546200062f57508154600181810184556000848152602080822090930184905584548482528286019093526040902091909155620002c2565b506000620002c2565b6112c38062001ef283390190565b80516001600160a01b03811681146200065e57600080fd5b919050565b6000806000606084860312156200067957600080fd5b620006848462000646565b9250620006946020850162000646565b9150620006a46040850162000646565b90509250925092565b600060208284031215620006c057600080fd5b5051919050565b81810381811115620002c257634e487b7160e01b600052601160045260246000fd5b634e487b7160e01b600052603260045260246000fd5b634e487b7160e01b600052603160045260246000fd5b60805160a0516117a9620007496000396000610382015260008181610328015281816109d70152610c1301526117a96000f3fe608060405234801561001057600080fd5b50600436106102065760003560e01c80638d5a87111161011a578063d547741f116100ad578063e30c39781161007c578063e30c3978146104fc578063e34336151461050d578063e8ae2b6914610520578063f09489ac14610533578063f2fde38b1461054657600080fd5b8063d547741f1461047b578063d8ed22411461048e578063d9a641e1146104a1578063dc6fd8ab146104d557600080fd5b8063a217fddf116100e9578063a217fddf14610426578063b500a48b1461042e578063ca15c87314610455578063d0ad27921461046857600080fd5b80638d5a8711146103dc5780638da5cb5b146103ef5780639010d07c1461040057806391d148541461041357600080fd5b80632f8a39dd1161019d57806353e978681161016c57806353e978681461037d5780635a6c72d0146103a4578063715018a6146103b957806377326584146103c157806379ba5097146103d457600080fd5b80632f8a39dd146102fd5780633119049a1461032357806336568abe14610362578063469388c41461037557600080fd5b806325b355d6116101d957806325b355d6146102775780632939dd97146102b057806329bc3446146102c35780632f2ff15d146102ea57600080fd5b806301ffc9a71461020b578063084bfff914610233578063238a1d741461024a578063248a9ca314610254575b600080fd5b61021e6102193660046114a2565b610559565b60405190151581526020015b60405180910390f35b61023c60055481565b60405190815260200161022a565b610252610584565b005b61023c6102623660046114cc565b60009081526002602052604090206001015490565b6004546040805161ffff610100840481168252600160281b840460020b602083015263010000009093049092169082015260600161022a565b6102526102be3660046114fa565b6105d6565b6004546102d790600160281b900460020b81565b60405160029190910b815260200161022a565b6102526102f8366004611517565b61064e565b60045461031090610100900461ffff1681565b60405161ffff909116815260200161022a565b61034a7f000000000000000000000000000000000000000000000000000000000000000081565b6040516001600160a01b03909116815260200161022a565b610252610370366004611517565b610678565b6102526106fb565b61034a7f000000000000000000000000000000000000000000000000000000000000000081565b600454610310906301000000900461ffff1681565b61025261075a565b6102526103cf366004611547565b6107cb565b610252610852565b6102526103ea366004611547565b6108cc565b6000546001600160a01b031661034a565b61034a61040e36600461156b565b61094d565b61021e610421366004611517565b61096c565b61023c600081565b61023c7fb73ce166ead2f8e9add217713a7989e4edfba9625f71dfd2516204bb67ad344281565b61023c6104633660046114cc565b610997565b60065461034a906001600160a01b031681565b610252610489366004611517565b6109ae565b61034a61049c36600461158d565b6109d3565b61034a6104af36600461158d565b60076020908152600092835260408084209091529082529020546001600160a01b031681565b61023c7f177d5fbf994f4d130c008797563306f1a168dc689f81b2fa23b4396931014d9181565b6001546001600160a01b031661034a565b61034a61051b36600461158d565b610ab8565b61021e61052e366004611517565b610d16565b6102526105413660046115bb565b610d4e565b6102526105543660046114fa565b610dea565b60006001600160e01b03198216635a05180f60e01b148061057e575061057e82610e5a565b92915050565b61058c610e8f565b60055460000361059b57600080fd5b60006005556040514281527fa2492902a0a1d28dc73e6ab22e473239ef077bb7bc8174dc7dab9fc0818e7135906020015b60405180910390a1565b6105de610e8f565b6006546001600160a01b03908116908216036105f957600080fd5b600680546001600160a01b0319166001600160a01b0383169081179091556040519081527f5e38e259ec1f8a38b98fc65a27e266bb9cc87c76eb8c96c957450d1cff4591ef906020015b60405180910390a150565b60008281526002602052604090206001015461066981610eeb565b6106738383610ef5565b505050565b6001600160a01b03811633146106ed5760405162461bcd60e51b815260206004820152602f60248201527f416363657373436f6e74726f6c3a2063616e206f6e6c792072656e6f756e636560448201526e103937b632b9903337b91039b2b63360891b60648201526084015b60405180910390fd5b6106f78282610f17565b5050565b610703610e8f565b6005541561071057600080fd5b4260058190557fcd60f5d54996130c21c3f063279b39230bcbafc12f763a1ac1dfaec2e9b61d299061074562015180826115f4565b604080519283526020830191909152016105cc565b610762610e8f565b60055460000361077157600080fd5b62015180600554426107839190611607565b101561078e57600080fd5b600060055561079b610f39565b6040514281527fa24203c457ce43a097fa0c491fc9cf5e0a893af87a5e0a9785f29491deb11e23906020016105cc565b6107d3610e8f565b61c35061ffff821611156107e657600080fd5b60045461ffff8083166301000000909204160361080257600080fd5b6004805464ffff0000001916630100000061ffff8416908102919091179091556040519081527fddc0c6f0b581e0d51bfe90ff138e4a548f94515c4dbcb12f5e98fdf0f750398390602001610643565b60015433906001600160a01b031681146108c05760405162461bcd60e51b815260206004820152602960248201527f4f776e61626c6532537465703a2063616c6c6572206973206e6f7420746865206044820152683732bb9037bbb732b960b91b60648201526084016106e4565b6108c981610f47565b50565b6108d4610e8f565b6103e861ffff821611156108e757600080fd5b60045461ffff808316610100909204160361090157600080fd5b6004805462ffff00191661010061ffff8416908102919091179091556040519081527f6b5c342391f543846fce47a925e7eba910f7bec232b08633308ca93fdd0fdf0d90602001610643565b60008281526003602052604081206109659083610f99565b9392505050565b60009182526002602090815260408084206001600160a01b0393909316845291905290205460ff1690565b600081815260036020526040812061057e90610fa5565b6000828152600260205260409020600101546109c981610eeb565b6106738383610f17565b60007f00000000000000000000000000000000000000000000000000000000000000008383604051602001610a1e9291906001600160a01b0392831681529116602082015260400190565b60408051601f19818403018152908290528051602091820120610a99939290917f177d5fbf994f4d130c008797563306f1a168dc689f81b2fa23b4396931014d9191016001600160f81b0319815260609390931b6bffffffffffffffffffffffff191660018401526015830191909152603582015260550190565b60408051601f1981840301815291905280516020909101209392505050565b6000816001600160a01b0316836001600160a01b031603610ad857600080fd5b600080836001600160a01b0316856001600160a01b031610610afb578385610afe565b84845b90925090506001600160a01b038216610b1657600080fd5b6001600160a01b03828116600090815260076020908152604080832085851684529091529020541615610b4857600080fd5b6006546000906001600160a01b031615610be4576006546001600160a01b031663361c0f76610b7785856109d3565b6040516001600160e01b031960e084901b1681526001600160a01b0390911660048201526024016020604051808303816000875af1158015610bbd573d6000803e3d6000fd5b505050506040513d601f19601f82011682018060405250810190610be1919061161a565b90505b60405163d9181cd360e01b81526001600160a01b038281166004830152848116602483015283811660448301527f0000000000000000000000000000000000000000000000000000000000000000169063d9181cd3906064016020604051808303816000875af1158015610c5c573d6000803e3d6000fd5b505050506040513d601f19601f82011682018060405250810190610c80919061161a565b6001600160a01b03848116600081815260076020818152604080842089871680865290835281852080549789166001600160a01b031998891681179091559383528185208686528352938190208054909616831790955593519081529397509290917f91ccaa7a278130b65168c3a0c8d3bcae84cf5e43704342bd3ec0b59e59c036db910160405180910390a350505092915050565b6000816001600160a01b0316610d346000546001600160a01b031690565b6001600160a01b031614806109655750610965838361096c565b610d56610e8f565b6001600282900b1215610d6857600080fd5b6101f4600282900b1315610d7b57600080fd5b600454600160281b9004600290810b9082900b03610d9857600080fd5b6004805467ffffff00000000001916600160281b62ffffff841602179055604051600282900b81527f7d7979096f943139ebee59f01c077a0f0766d06c40c86d596f23ed2561547cce90602001610643565b610df2610e8f565b600180546001600160a01b0319166001600160a01b038316908117909155610e226000546001600160a01b031690565b6001600160a01b03167f38d16b8cac22d99fc7c124b9cd0de2d3fa1faef420bfe791d8c362d765e2270060405160405180910390a350565b60006001600160e01b03198216637965db0b60e01b148061057e57506301ffc9a760e01b6001600160e01b031983161461057e565b6000546001600160a01b03163314610ee95760405162461bcd60e51b815260206004820181905260248201527f4f776e61626c653a2063616c6c6572206973206e6f7420746865206f776e657260448201526064016106e4565b565b6108c98133610faf565b610eff8282611008565b6000828152600360205260409020610673908261108e565b610f2182826110a3565b6000828152600360205260409020610673908261110a565b610f41610e8f565b610ee960005b610f636000610f5e6000546001600160a01b031690565b610f17565b610f6c8161111f565b6000546001600160a01b0316156108c9576108c96000610f946000546001600160a01b031690565b610ef5565b60006109658383611138565b600061057e825490565b610fb9828261096c565b6106f757610fc681611162565b610fd1836020611174565b604051602001610fe292919061165b565b60408051601f198184030181529082905262461bcd60e51b82526106e4916004016116d0565b611012828261096c565b6106f75760008281526002602090815260408083206001600160a01b03851684529091529020805460ff1916600117905561104a3390565b6001600160a01b0316816001600160a01b0316837f2f8788117e7eff1d82e926ec794901d17c78024a50270940304540a733656f0d60405160405180910390a45050565b6000610965836001600160a01b038416611310565b6110ad828261096c565b156106f75760008281526002602090815260408083206001600160a01b0385168085529252808320805460ff1916905551339285917ff6391f5c32d9c69d2a47ea670b442974b53935d1edc7fd64eb21e047a839171b9190a45050565b6000610965836001600160a01b03841661135f565b600180546001600160a01b03191690556108c981611452565b600082600001828154811061114f5761114f611703565b9060005260206000200154905092915050565b606061057e6001600160a01b03831660145b60606000611183836002611719565b61118e9060026115f4565b67ffffffffffffffff8111156111a6576111a6611730565b6040519080825280601f01601f1916602001820160405280156111d0576020820181803683370190505b509050600360fc1b816000815181106111eb576111eb611703565b60200101906001600160f81b031916908160001a905350600f60fb1b8160018151811061121a5761121a611703565b60200101906001600160f81b031916908160001a905350600061123e846002611719565b6112499060016115f4565b90505b60018111156112c1576f181899199a1a9b1b9c1cb0b131b232b360811b85600f166010811061127d5761127d611703565b1a60f81b82828151811061129357611293611703565b60200101906001600160f81b031916908160001a90535060049490941c936112ba81611746565b905061124c565b5083156109655760405162461bcd60e51b815260206004820181905260248201527f537472696e67733a20686578206c656e67746820696e73756666696369656e7460448201526064016106e4565b60008181526001830160205260408120546113575750815460018181018455600084815260208082209093018490558454848252828601909352604090209190915561057e565b50600061057e565b60008181526001830160205260408120548015611448576000611383600183611607565b855490915060009061139790600190611607565b90508181146113fc5760008660000182815481106113b7576113b7611703565b90600052602060002001549050808760000184815481106113da576113da611703565b6000918252602080832090910192909255918252600188019052604090208390555b855486908061140d5761140d61175d565b60019003818190600052602060002001600090559055856001016000868152602001908152602001600020600090556001935050505061057e565b600091505061057e565b600080546001600160a01b038381166001600160a01b0319831681178455604051919092169283917f8be0079c531659141344cd1fd0a4f28419497f9722a3daafe3b4186f6b6457e09190a35050565b6000602082840312156114b457600080fd5b81356001600160e01b03198116811461096557600080fd5b6000602082840312156114de57600080fd5b5035919050565b6001600160a01b03811681146108c957600080fd5b60006020828403121561150c57600080fd5b8135610965816114e5565b6000806040838503121561152a57600080fd5b82359150602083013561153c816114e5565b809150509250929050565b60006020828403121561155957600080fd5b813561ffff8116811461096557600080fd5b6000806040838503121561157e57600080fd5b50508035926020909101359150565b600080604083850312156115a057600080fd5b82356115ab816114e5565b9150602083013561153c816114e5565b6000602082840312156115cd57600080fd5b81358060020b811461096557600080fd5b634e487b7160e01b600052601160045260246000fd5b8082018082111561057e5761057e6115de565b8181038181111561057e5761057e6115de565b60006020828403121561162c57600080fd5b8151610965816114e5565b60005b8381101561165257818101518382015260200161163a565b50506000910152565b7f416363657373436f6e74726f6c3a206163636f756e7420000000000000000000815260008351611693816017850160208801611637565b7001034b99036b4b9b9b4b733903937b6329607d1b60179184019182015283516116c4816028840160208801611637565b01602801949350505050565b60208152600082518060208401526116ef816040850160208701611637565b601f01601f19169190910160400192915050565b634e487b7160e01b600052603260045260246000fd5b808202811582820484141761057e5761057e6115de565b634e487b7160e01b600052604160045260246000fd5b600081611755576117556115de565b506000190190565b634e487b7160e01b600052603160045260246000fdfea264697066735822122046000bbb7f8e1281439c87d11f6c93a6eb73200f7a1eb49b7160274b73f0ed9564736f6c6343000814003360a06040526000805460ff191690553480156200001b57600080fd5b50604051620012c3380380620012c38339810160408190526200003e916200018b565b81816200004c82826200007c565b5050600280546001600160a01b0319166001600160a01b03959095169490941790935550503360805250620001ef565b6000805460ff1615620000e75760405162461bcd60e51b815260206004820152602960248201527f416c726561647920726567697374657265642e2043616e6e6f742072656769736044820152683a32b91030b3b0b4b760b91b606482015260840160405180910390fd5b6000805460ff19166001179055604051632210724360e11b81526001600160a01b038381166004830152849190821690634420e486906024016020604051808303816000875af115801562000140573d6000803e3d6000fd5b505050506040513d601f19601f82011682018060405250810190620001669190620001d5565b949350505050565b80516001600160a01b03811681146200018657600080fd5b919050565b600080600060608486031215620001a157600080fd5b620001ac846200016e565b9250620001bc602085016200016e565b9150620001cc604085016200016e565b90509250925092565b600060208284031215620001e857600080fd5b5051919050565b6080516110a3620002206000396000818161049301528181610754015281816108d201526109e501526110a36000f3fe608060405234801561001057600080fd5b506004361061010b5760003560e01c8063ad6129ac116100a2578063d17bc78311610071578063d17bc7831461026b578063d9fb435314610273578063dfadc79414610286578063f3fef3a314610299578063ff3c43e1146102ac57600080fd5b8063ad6129ac14610205578063b5f680ae1461020d578063bbac3b8d14610220578063c53b3fbe1461024757600080fd5b806350eea0c8116100de57806350eea0c8146101a257806362744405146101b55780639d754dde146101dd5780639f856b8d146101f057600080fd5b80631de4161314610110578063371abc951461014a5780634738761c1461017a57806348a50fcf1461018d575b600080fd5b6101377fb77a63f119f4dc2174dc6c76fc1a1565fa4f2b0dde50ed5c0465471cd9b331f681565b6040519081526020015b60405180910390f35b6000546101629061010090046001600160a01b031681565b6040516001600160a01b039091168152602001610141565b600154610162906001600160a01b031681565b6101a061019b366004610ee3565b6102bf565b005b6101a06101b0366004610ee3565b610375565b6000546101ca90600160c01b900461ffff1681565b60405161ffff9091168152602001610141565b600254610162906001600160a01b031681565b6000546101ca90600160a81b900461ffff1681565b6101a06103ed565b6101a061021b366004610ee3565b610458565b6101377f63e58c34d94475ba3fc063e19800b940485850d84d09cd3c1f2c14192c559a6881565b60005461025b90600160b81b900460ff1681565b6040519015158152602001610141565b6101a06105d0565b6101a0610281366004610efe565b610632565b6101a0610294366004610f22565b610705565b6101a06102a7366004610f97565b610883565b6101a06102ba366004610efe565b6109aa565b6002546001600160a01b031633146102f25760405162461bcd60e51b81526004016102e990610fc1565b60405180910390fd5b6001600160a01b03811661030557600080fd5b6001546001600160a01b039081169082160361032057600080fd5b600180546001600160a01b0319166001600160a01b0383169081179091556040519081527f34d1b5ef1c1c2c03a5000b91bef5c465790244c6751c794e5b45bed7657c38fd906020015b60405180910390a150565b6002546001600160a01b0316331461039f5760405162461bcd60e51b81526004016102e990610fc1565b600380546001600160a01b0319166001600160a01b0383169081179091556040519081527fab6918ba7303f2f81e46e324b5f34af4bda562577c1da710e2034980fee1e82a9060200161036a565b6003546001600160a01b0316331461040457600080fd5b60028054336001600160a01b031991821681179092556003805490911690556040519081527fecf97a11fb2f2bcc38d1b6881865ecc04405af2d8b953004c79b3ab398732d029060200160405180910390a1565b60405163e8ae2b6960e01b81527f63e58c34d94475ba3fc063e19800b940485850d84d09cd3c1f2c14192c559a6860048201523360248201527f00000000000000000000000000000000000000000000000000000000000000006001600160a01b03169063e8ae2b6990604401602060405180830381865afa1580156104e2573d6000803e3d6000fd5b505050506040513d601f19601f820116820180604052508101906105069190610ff8565b6105475760405162461bcd60e51b815260206004820152601260248201527137b7363c9030b236b4b734b9ba3930ba37b960711b60448201526064016102e9565b6001600160a01b03811661055a57600080fd5b6000546001600160a01b0361010090910481169082160361057a57600080fd5b60008054610100600160a81b0319166101006001600160a01b038416908102919091179091556040519081527f2f4db788b994a5908051d68a2340153f49870447185a244d2326861e60cc41869060200161036a565b6002546001600160a01b031633146105fa5760405162461bcd60e51b81526004016102e990610fc1565b6000805462ffffff60b81b191681556040517f9f4bbade0736edbd2ec12c598bdac4573af13a3b57820ae4c7da5c61703eaaff9190a1565b6002546001600160a01b0316331461065c5760405162461bcd60e51b81526004016102e990610fc1565b6103e861ffff8216111561066f57600080fd5b60005461ffff828116600160c01b909204161480159061069f575060005461ffff828116600160a81b9092041614155b6106a857600080fd5b6000805461ffff8316600160c01b0262ffffff60b81b1990911617600160b81b1790556040517f2d6ac59d6da98f80c7ea481d17c670ea310b000fff5cf1732d94d93652dd25b79061036a90839061ffff91909116815260200190565b6002546001600160a01b03163314806107c7575060405163e8ae2b6960e01b81527fb77a63f119f4dc2174dc6c76fc1a1565fa4f2b0dde50ed5c0465471cd9b331f660048201523360248201527f00000000000000000000000000000000000000000000000000000000000000006001600160a01b03169063e8ae2b6990604401602060405180830381865afa1580156107a3573d6000803e3d6000fd5b505050506040513d601f19601f820116820180604052508101906107c79190610ff8565b6108055760405162461bcd60e51b815260206004820152600f60248201526e37b7363c903bb4ba34323930bbb2b960891b60448201526064016102e9565b8060008080610812610b8e565b92509250925060005b8481101561087a576108728787838181106108385761083861101a565b61084e9260206040909202019081019150610ee3565b838989858181106108615761086161101a565b905060400201602001358787610c5d565b60010161081b565b50505050505050565b6002546001600160a01b0316331480610945575060405163e8ae2b6960e01b81527fb77a63f119f4dc2174dc6c76fc1a1565fa4f2b0dde50ed5c0465471cd9b331f660048201523360248201527f00000000000000000000000000000000000000000000000000000000000000006001600160a01b03169063e8ae2b6990604401602060405180830381865afa158015610921573d6000803e3d6000fd5b505050506040513d601f19601f820116820180604052508101906109459190610ff8565b6109835760405162461bcd60e51b815260206004820152600f60248201526e37b7363c903bb4ba34323930bbb2b960891b60448201526064016102e9565b6000806000610990610b8e565b9250925092506109a38582868686610c5d565b5050505050565b60405163e8ae2b6960e01b81527f63e58c34d94475ba3fc063e19800b940485850d84d09cd3c1f2c14192c559a6860048201523360248201527f00000000000000000000000000000000000000000000000000000000000000006001600160a01b03169063e8ae2b6990604401602060405180830381865afa158015610a34573d6000803e3d6000fd5b505050506040513d601f19601f82011682018060405250810190610a589190610ff8565b610a995760405162461bcd60e51b815260206004820152601260248201527137b7363c9030b236b4b734b9ba3930ba37b960711b60448201526064016102e9565b600054600160b81b900460ff16610ae15760405162461bcd60e51b815260206004820152600c60248201526b1b9bdd081c1c9bdc1bdcd95960a21b60448201526064016102e9565b60005461ffff828116600160c01b9092041614610b325760405162461bcd60e51b815260206004820152600f60248201526e696e76616c6964206e65772066656560881b60448201526064016102e9565b6000805464ffffffffff60a81b1916600160a81b61ffff841690810262ffffff60b81b1916919091179091556040519081527fda1e1a9a6410acc0398b3b64e0c0110b8df57e29bfe69a419cdd9ae12718c3079060200161036a565b60005460015461ffff600160a81b830416916001600160a01b0391821691610100909104168215610c0f576001600160a01b038216610c0f5760405162461bcd60e51b815260206004820152601c60248201527f696e76616c696420616c6765627261206665652072656365697665720000000060448201526064016102e9565b6001600160a01b038116610c585760405162461bcd60e51b815260206004820152601060248201526f34b73b30b634b2103932b1b2b4bb32b960811b60448201526064016102e9565b909192565b8261ffff831615610ce3576000610c7b8261ffff86166103e8610d43565b9050610c878183611030565b9150610c94878483610dc4565b826001600160a01b0316876001600160a01b03167fb7ee7fc9dacb957cfa93faeb8ca1826292de295e18e287a347dddfde7ab48b4083604051610cd991815260200190565b60405180910390a3505b610cee868683610dc4565b846001600160a01b0316866001600160a01b03167f7a629b77ef27ad337abe438773206187960a90abfb43607826bef77d650e84b983604051610d3391815260200190565b60405180910390a3505050505050565b6000831580610d6457505082820282848281610d6157610d61611057565b04145b15610d855760008211610d7657600080fd5b81810490829006151501610dbd565b610d90848484610e2e565b905060008280610da257610da2611057565b8486091115610dbd576000198110610db957600080fd5b6001015b9392505050565b600060405163a9059cbb60e01b6000526001600160a01b03841660045282602452602060006044600080895af19150813d1560203d146001600051141617169150806040525080610e2857604051637232c81f60e11b815260040160405180910390fd5b50505050565b60008383028160001985870982811083820303915050808411610e5057600080fd5b80600003610e6357508290049050610dbd565b8385870960008581038616958690049560026003880281188089028203028089028203028089028203028089028203028089028203028089029091030291819003819004600101858411909403939093029190930391909104170290509392505050565b80356001600160a01b0381168114610ede57600080fd5b919050565b600060208284031215610ef557600080fd5b610dbd82610ec7565b600060208284031215610f1057600080fd5b813561ffff81168114610dbd57600080fd5b60008060208385031215610f3557600080fd5b823567ffffffffffffffff80821115610f4d57600080fd5b818501915085601f830112610f6157600080fd5b813581811115610f7057600080fd5b8660208260061b8501011115610f8557600080fd5b60209290920196919550909350505050565b60008060408385031215610faa57600080fd5b610fb383610ec7565b946020939093013593505050565b60208082526018908201527f6f6e6c7920616c676562726120666565206d616e616765720000000000000000604082015260600190565b60006020828403121561100a57600080fd5b81518015158114610dbd57600080fd5b634e487b7160e01b600052603260045260246000fd5b8181038181111561105157634e487b7160e01b600052601160045260246000fd5b92915050565b634e487b7160e01b600052601260045260246000fdfea2646970667358221220b04796aef2d712ed95cdd14c3d5e4d26be04cb21253941d15e203c72ad294fa664736f6c63430008140033",
    "linkReferences": {}
  },
  "methodIdentifiers": {
    "DEFAULT_ADMIN_ROLE()": "a217fddf",
    "POOLS_ADMINISTRATOR_ROLE()": "b500a48b",
    "POOL_INIT_CODE_HASH()": "dc6fd8ab",
    "acceptOwnership()": "79ba5097",
    "communityVault()": "53e97868",
    "computePoolAddress(address,address)": "d8ed2241",
    "createPool(address,address)": "e3433615",
    "defaultCommunityFee()": "2f8a39dd",
    "defaultConfigurationForPool()": "25b355d6",
    "defaultFee()": "5a6c72d0",
    "defaultPluginFactory()": "d0ad2792",
    "defaultTickspacing()": "29bc3446",
    "getRoleAdmin(bytes32)": "248a9ca3",
    "getRoleMember(bytes32,uint256)": "9010d07c",
    "getRoleMemberCount(bytes32)": "ca15c873",
    "grantRole(bytes32,address)": "2f2ff15d",
    "hasRole(bytes32,address)": "91d14854",
    "hasRoleOrOwner(bytes32,address)": "e8ae2b69",
    "owner()": "8da5cb5b",
    "pendingOwner()": "e30c3978",
    "poolByPair(address,address)": "d9a641e1",
    "poolDeployer()": "3119049a",
    "renounceOwnership()": "715018a6",
    "renounceOwnershipStartTimestamp()": "084bfff9",
    "renounceRole(bytes32,address)": "36568abe",
    "revokeRole(bytes32,address)": "d547741f",
    "setDefaultCommunityFee(uint16)": "8d5a8711",
    "setDefaultFee(uint16)": "77326584",
    "setDefaultPluginFactory(address)": "2939dd97",
    "setDefaultTickspacing(int24)": "f09489ac",
    "startRenounceOwnership()": "469388c4",
    "stopRenounceOwnership()": "238a1d74",
    "supportsInterface(bytes4)": "01ffc9a7",
    "transferOwnership(address)": "f2fde38b"
  },
  "id": 1
}